:020000040000FA
:040000004BEF57F07B
:020004000000FA
:0200080008D01E
:06000A00010004000000EB
:08001000F201000002000000F3
:0800180000D00101F3CF00F15B
:10002000F4CF01F18150F2B483EC00F0F2B266EC4F
:1000300000F0F0B071EC00F09EB088EC00F09EBAD9
:0E00400027EC00F001C1F4FF00C1F3FF110036
:02004E0021BDD2
:1000500029D0AECF3DF1600E3D5F3D4F218B3D4F2E
:10006000208B3D4F218D3D4F22813D4F238F3D4FB2
:1000700023873D4F24833D4F24853D4F27813D4FAE
:10008000268F3D4F29833D4F1B833D4F268D3D4F8E
:100090001D87C10EAE6201D02683AE509E9AAB98EA
:1000A000AB8812006C0EAE1802E11B83F6D728B79E
:1000B000F4D78186AE6601D0AE2AAE50F36EF3500F
:1000C000640DF3CFB9F1F4CFBAF1E7D7F292D5BE10
:1000D00013D087C0E8FFE8A02087E8B02089D58E3C
:1000E0001200F090D5BE08D087C0E8FFE8B02087A6
:1000F000E8A02089D58E1200F294120ED56ED76A30
:10010000D66AD58E1200F294D59ED76AD66A1200AE
:100110008198CEB0FED7CEA0FED7080ECF603B2B85
:10012000080ECF5E9E903B2B0F0E3B6501D053D83F
:100130001CB912001FBF12003C2B3CC16EF16E4F68
:100140003AD06E4F42D06E4F3BD06E4F3ED06E4F86
:1001500037D06E4F3AD06E4F33D037D8D890F0BDED
:10016000D88080337F33D89080337F3380C182F151
:100170007FC181F1D8908EBFD8808E338D33D890D7
:100180008EBFD8808E338D338EC190F18DC18FF1AB
:100190001F8D3C6B21AD04D0E80E936F030E946F5E
:1001A0009351815D836F94518259846FD8A8120056
:1001B000836B846B12007F6B806B8D6B8E6BF09DFD
:1001C000C0EC13F0B0EC13F01200B7EC13F0BDEC80
:1001D00013F023EF13F03B6B1C811CB905D0010E0B
:1001E000EA27000EEB23EC23D8941CA322D09C2BEF
:1001F0009D059C6502D09C6B1E87EE2BD8B4EF2B1F
:10020000172BD8B4182BDE2BD8B4DF2B1EA911D096
:100210009B2B3B0E9B6505D09B6B1C87992BD8B401
:100220009A2B26AB06D0CC2B3B0ECC6502D0CC6BE8
:10023000CB2B022B3C0E02631200026B1C851CA30D
:1002400033D8032B3B0E03651200036B042B170EF0
:1002500004651200046B052BDAC102F106C16EF1D0
:100260006E4F1F0E6E4F1C0E6E4F1F0E6E4F1E0EEA
:100270006E4F1F0E6E4F1E0E6E4F1F0E6E4F1F0ED7
:100280006E4F1E0E6E4F1F0E6E4F1E0E6E4F1F0EC8
:1002900005651200010E056F062B0C0E0665120097
:1002A000010E066F072B12002391BF51C01105E00C
:1002B0002381010EBF5F000EC05BDCC12FF1DDC1E9
:1002C00030F12F51301108E0010E2F5F000E305B2E
:1002D0002FC1DCF130C1DDF1DCC12FF1DDC130F126
:1002E0002F6705D0306703D0196B1A6B1200010E0F
:1002F0001927000E1A231200288B01D0289B238D6A
:1003000003D0288B01D0289B0A6FFC0EF66E5F0E7F
:10031000F76E010EF86E040E0A0328BBF426F350A4
:10032000F626F450F722000EF8220900F5CF0BF163
:100330000900F5CF0CF123BD06D00900F5CF82F0FE
:100340000900F5CF80F0E86AE8CF84F00BC1F6FF32
:100350000CC1F7FF23AD20EE60F00900F55002E07C
:10036000DE6EFBD723AD02D0239D1200E86AE8CFF2
:1003700076F0DFEF02F02FC146F130C147F13C0EBD
:10038000486F496B46D842C130F146C12FF1120087
:10039000D89040333F33412FFBD712001B974E516B
:1003A0004C5D4A6F4F514D594B6FD8A812001B87B7
:1003B0004B1F4A6DD8B04B2B12001B974E514C5D12
:1003C0004A6F4F514D594B6FD8B012001B874B1FCE
:1003D0004A6DD8B04B2B1200446B456B4651480315
:1003E000F350426FF450436F46514903F350432793
:1003F000F450442347514803F3504327F450442317
:10040000D8B0452B47514903F3504427F4504523B6
:100410001200426B436B48514911D8B4FF0C010ED6
:10042000416F49BF05D0412BD89048374937F9D79C
:10043000D890423743374851465F4951D8A049299F
:10044000475FD8B005D0485146274951472301D0CE
:1004500042814107D8B41200D89049334833E8D7D5
:10046000200E416F4551476F4451466F43514D6FC8
:1004700042514C6F456B446B436B426B4F6B4E6B01
:10048000D8904C374D37463747374E374F3749515D
:100490004F5DD8A402D048514E5DD8A007D0485136
:1004A0004E5FD8A04F0749514F5FD880423743373E
:1004B00044374537412FE4D71200716B726B73518B
:1004C0007503F3506F6FF450706F73517603F350F0
:1004D0007027F450712374517503F3507027F45052
:1004E0007123D8B0722B74517603F3507127F450F6
:1004F00072231200723371337033E82EFBD712006F
:1005000073517503F3CF6FF1F4CF70F1745176032B
:10051000F3CF71F1F4CF72F173517603F35070277A
:10052000F4507123E86A722374517503F3507027F5
:10053000F4507123E86A72231200E2DF76AF04D030
:100540007351715F7451725B74AF12007551715FBA
:100550007651725B1200096FB6EF02F000000000E6
:10056000000000000000000000000000000000008B
:10057000000000000000000000000000000000007B
:10058000000000000000000000000000000000006B
:10059000000000000000000000000000000000005B
:1005A000000000000000092FAEEF02F01200086FFB
:1005B000CE50420FCE62FED7082FFAD71200DE6A65
:1005C000FCEC07F00101120082C0E8FF020D0ED81A
:1005D00011EF15F082C0E8FF020D08D83ED882C0A6
:1005E000E8FF020DF34AF42A01D837D087C0E8FFAC
:1005F000E8B20DD0E8A008D0F3503F08F36EF450F5
:10060000D8A0E82A0108F46E210EE4D9EDD1060E37
:10061000E1D9F450E4D9070EDDD9F350E0D9F32A3B
:10062000000EF422080ED6D9F450D9D9090ED2D929
:10063000F350D5D1F56A82C0E8FF020DF550010BE9
:10064000F31AD4DF81C0E8FFF518D8B4120080C0D7
:10065000E8FFF52404D8F52AEED780C0E8FF87C06C
:10066000F3FFF3B212D0F3B0EF08010D200EB2D9B0
:10067000BBD9220EAFD984807AC083FF8094808456
:100680007BC083FF809480841200010D020EA2D9EA
:10069000000EA5D9030E9ED9F350A1D9F32A040E5A
:1006A00099D9000E9CD9050E95D9F35098D9220EF0
:1006B00091D984807DC083FF809480847EC083FF35
:1006C000809480847FC083FF80948084120019D935
:1006D000836A80968194809A849480948490849292
:1006E000120087C0E8FFE8B256D082C0E8FF020DD2
:1006F00087C0E8FFE8B011D0350E6CD975D9210E4E
:1007000069D972D90150F3260250F422F306D8A019
:10071000F406360E5FD968D917D0F3503F08F36E50
:10072000F450D8A0E82A0108F46E360E53D95CD9EB
:10073000210E50D959D90150F35E0250F45AF34AB0
:10074000F42A350E47D950D987C0E8FFE8B011D058
:1007500080C0F4FF81C0E8FFF424E806F36E370E92
:1007600039D942D9F4CFF3FFF46A200E33D93CD9FA
:10077000120080C0F3FF81C0E8FFF324F008F46E9C
:10078000F350EF08F36E370E25D92ED9F46A200EF8
:1007900021D92AD9120082C0E8FF020D060E1AD90B
:1007A000F4501DD9070E16D9F35019D90150F3266C
:1007B0000250F422F306D8A0F406080E0BD9F45028
:1007C0000ED9090E07D9F3500AD980C0F4FF81C0B1
:1007D000E8FFF424E806F36E020EFCD8000EFFD802
:1007E000030EF8D8F450FBD8040EF4D8000EF7D856
:1007F000050EF0D8F350F3D8120080C004F081C089
:1008000005F082C006F083C007F0010EE8CF81F04A
:100810001AD804C0F3FF05C0E8FFF324E806E8CFC8
:1008200080F011D804C080F005C081F0010EE8CF3F
:1008300083F009D806C0E8FF07C0F3FFF324E806F9
:10084000E8CF82F000D083C0E8FFD890E836016E90
:10085000000EE836026E45DF220EBCD8F46A8480B2
:1008600081C0F3FF87C0E8FFE8B207D07AC083FFFA
:10087000809480847BC083FF0AD07DC083FF8094F6
:1008800080847EC083FF809480847FC083FF8094B7
:10089000808487C0E8FFE8B207D07AC083FF8094E5
:1008A00080847BC083FF0AD07DC083FF80948084D6
:1008B0007EC083FF809480847FC083FF8094808487
:1008C000F32ED0D7F42A86C0E8FFF4620DD0E86A90
:1008D000E8CF7AF0E8CF7BF0E8CF7CF0E8CF7DF08E
:1008E000E8CF7EF0E8CF7FF083C0E8FFF462B8D7AE
:1008F000E868E8CF86F087C0E8FFE8B21200000E93
:1009000069D087C0E8FFE8B22CD0350E63D8000D5F
:100910006BD8360E5FD8010E62D83F0E60D8370E06
:1009200059D8000E5CD8EF0E5AD8200E53D85CD898
:10093000210E50D859D8220E4DD88480836AA00E3B
:10094000F46EF00EF36E80948084809480848094A2
:10095000808480948084F32EF6D7F42EF2D7000E94
:1009600039D0020E37D8000E3AD8030E33D8000E15
:1009700036D8040E2FD8000E32D8050E2BD8EF0E25
:100980002ED8060E27D8000E2AD8070E23D8000E20
:1009900026D8080E1FD8010E22D8090E1BD83F0EEC
:1009A0001ED8220E17D88480A00EF46EF00EF36EBF
:1009B000836A8094808480948084809480848094EE
:1009C00080848094808480948084F32EF2D7F42EE7
:1009D000EDD712008490836E80948084120084800E
:1009E000836E8094808412008480F4CF83FF80948F
:1009F0008084F3CF83FF8094808487C0E8FFE8A2DF
:100A000012007CC083FF80948084120087C0E8FFBE
:100A1000E8B212008480849400000000000000000E
:100A2000835084841200DC0EF66E7F0EF76E010E8A
:100A3000F86E0800010EF5629DD000018781878362
:100A400001018096000081940A0ED7EC02F08184A7
:100A5000640ED7EC02F080840000809A000084824B
:100A6000010ED7EC02F08492020EABEC02F0020E03
:100A7000ABEC02F08482780ED7EC02F0848406D8C6
:100A800040DF3C0ED7EC02F080861200BC0EF66E02
:100A90000A0EF76E000EF86E0900FF0EF56208D020
:100AA0000900F56601D01200F550D7EC02F0F4D73A
:100AB000F55090DF0900F55092DFEED796011987C7
:100AC000FF0A26801B0C430020001F07447F4514AB
:100AD0001D051E001C041B14FF284380420823959B
:100AE000249525FF21102B0095011A00930F7066A5
:100AF000180146864760480149674A464B134C0136
:100B00004D674E004F135002510038003900270244
:100B1000280329082A082C082D08350936099114BC
:100B2000370001063AA13BA13CA13D003E2D400308
:100B300041CC0A000B000C010D3F0E000F0010010C
:100B400011401200130014001500020003000400FD
:100B500005EF060007000801093F168872002260B1
:100B6000940A907F2684FF2826A426ACFF2826BC62
:100B70009600FF00000187930101809680B6FDD7A3
:100B8000200ED7EC02F081840000809A000084825D
:100B9000FA0ED7EC02F0848400008492020EABECD3
:100BA00002F0020EABEC02F084820A0ED7EC02F0E7
:100BB000240E10DF020E0EDF000E11DF000E0FDF1D
:100BC000030E08DF000EF0B1010E09DF00EE87F022
:100BD000000EEFA0300E03DFEE0EF66E0B0EF76E7A
:100BE000000EF86E39D80CD88CDE80861200180002
:100BF00028F8000FF9000F100000050001FF0000A9
:100C00001FB50ED0818E0000819C87C0E8FFE8B23E
:100C10001200820EF66E0C0EF76E000EF86E1CD0EF
:100C2000818E0000818C87C0E8FFE8B21200A00E20
:100C3000F66E0C0EF76E000EF86E0ED0819E000060
:100C4000819C87C0E8FFE8B21200BE0EF66E0C0E63
:100C5000F76E000EF86E00D00900FF0EF56208D0A6
:100C60000900F56601D01200F550D7EC02F0F4D778
:100C7000F550B0DE0900F550B2DE0900F550AFDEE8
:100C8000EBD7701B80711F00722200731711741A4A
:100C90000E751D15761811771E18781D11FF0000AE
:100CA000701F00712380722A80731511741C1175D6
:100CB0001B15761A15771C18782115FF0000701483
:100CC0000071170072158073151174140B751B15C4
:100CD00076130E771C1878150EFF00002B6F2C6F03
:100CE000E8CF7FF0030E2C17000E2C4F500E2C4F28
:100CF000A00E2C4FF80E2D6F2BC12CF11C0E2C17B3
:100D00002C432C43000E2C4F040E2C4F080E2C4F5E
:100D10000C0E2C4F100E2C4F140E2C4F200E2C4F5F
:100D20003F0E2E6F2E332D332E332D332E332D3396
:100D30002BC12CF12B6B2E332B332E332B332E3335
:100D40002B33E00E2C172C432C432C432C432C43E9
:100D5000000E2C4F040E2C4F080E2C4F0C0E2C4F57
:100D6000100E2C4F140E2C4F180E2C4F1F0E2E6FE2
:100D70002E332B332E332B332E332B332E332B3377
:100D80002E332B332BC17AF02DC17BF087C0E8FFC7
:100D9000E8A212007FC02BF17FC02CF1030E2C17AC
:100DA000000E2C4F500E2C4FA00E2C4FF80EE8CFFB
:100DB0007FF02BC12CF11C0E2C172C432C43000E62
:100DC0002C4F100E2C4F200E2C4F300E2C4F400E5F
:100DD0002C4F500E2C4F800E2C4FFC0EE8CF7EF087
:100DE000E00E2B172B432B432B432B432B43000E9F
:100DF0002B4F100E2B4F200E2B4F300E2B4F400E33
:100E00002B4F500E2B4F800E2B4FFC0EE8CF7DF05A
:100E10001200F36E845105E1700EF66E180EF76E37
:100E200012D0E82C05D0290EF66E2F0EF76E0BD0DF
:100E3000E82C05D0850EF66E350EF76E04D03E0E0A
:100E4000F66E3E0EF76E010EF86E0900F55006E0E4
:100E50000900F362FAD7F5CFF3FFF7D70900F55091
:100E6000F35E0900F5500900F360F5CFF3FF006A67
:100E70000900F55001E700807F0B816FF350020DF0
:100E8000F350F626F450F7220900F5CF04F00900DC
:100E9000F5CF05F00900F5CF06F00900F5CF07F012
:100EA000120004C0F6FF05C0F7FF036A0900F55001
:100EB00000A002D001E61F0B7F0BE828032681511A
:100EC000E86C032603E6014A022AFBD7E86C0326F6
:100ED000F6500662EBD7F7500762E8D7120020EE13
:100EE00060F0016A026ADE5003E093DFDADFFBD7CD
:100EF000120004C0F6FF05C0F7FF0900F55000A07E
:100F000002D001E61F0B7F0BE828036EF55000A00E
:100F100045D044E6E00B42E085A18008E83A0109AB
:100F2000006EF36AF46A7A317B0B086E7B31EF0B4B
:100F3000096E00A404D008C0F4FF09C0F3FF00A2AA
:100F40000AD00830390B086E0930E70B096E0950DA
:100F5000F3260850F42287C0E8FFE8A22CD0F3CF94
:100F60007FF0D8907F37D8907F37D8907F377FBF7A
:100F70007F85F432F332F432F332F432F332F39207
:100F8000F390F3CF7EF0D890F436D890F436D89022
:100F9000F436F4BEF484F4CF7DF00DD085B1800A30
:100FA00005E67AC0F4FF7BC0F3FFD5D7F46AF36A95
:100FB0007D6B7E6B7F6B848087C0E8FFE8B207D0D3
:100FC000F4CF83FF80948084F3CF83FF0AD07DC069
:100FD00083FF809480847EC083FF809480847FC060
:100FE00083FF809480840306E6E1F650066285D78D
:100FF000F750076282D71200000171DF71EC03F035
:1010000020EE60F0220EE6DCDE5003E002DF71DF4E
:10101000FBD7000EDFDC120000010900F5CF01F064
:101020000900F5CF81F00900F5CF00F0090000506C
:1010300020EE08F00900F5CFDEFF0900F5CFDEFF56
:10104000E82EF8D7056A01508103D890F336F436BC
:10105000F3CF03F0F4CF04F00536E86A0306045A30
:10106000055A026A0136023671EC03F0220EB2DC38
:10107000066A076A0900F5AE08D0F536070EF536A0
:1010800006360736E82EFBD7F5D7F550E82620EED2
:1010900008F0E8CFD9FFDECFF3FFDECFF4FF065034
:1010A000035E0750045A000E055A064A072A072A0B
:1010B0009BDC062EFDD7072EFBD7E86A0306045AF1
:1010C000055AD6E7000E86DC12001B936C0EAD6E3F
:1010D0001F8F9D9A9E9A81860CEC0AF087C0E8FFCC
:1010E000E8A278EC08F01F9F819681989D8A1200F3
:1010F000000D350E6FDC78DC360E6CDC010E6FDC1B
:101100003F0E6DDC370E66DC000E69DCEF0E67DC2F
:1011100087A104D0EF0EF36E000EF46E200E5ADCA1
:1011200063DC000D210E56DC5FDC220E53DC6EDC2E
:101130006DDCA00E016E5BD88178220E4BDC9568C9
:10114000F00E006E63DCF46E61DCF36E13D8002EDB
:10115000F9D74AD8F00E006E59DCF46E57DCF36E06
:1011600009D8002EF9D740D8956A012EE5D7000E90
:1011700031DC1200F450031805E1F350021802E1CB
:10118000042A1200045019E0035002101DE003501D
:101190000214E82A22E0400E04640450045EE806CB
:1011A0008009AD6E0CEC0AF003C0ADFF0CEC0AF048
:1011B00002C0ADFF0CEC0AF0E5D7F4CF03F0F3CF9B
:1011C00002F0010E046E1200800E04640450045EEE
:1011D000E806AD6E0CEC0AF0D5D7400E046404505E
:1011E000045EE806C009F5D7F46AF36ACBDF046A47
:1011F0001200356B352B346B630E2F612F6F2FC1AF
:1012000031F1326B1B950A0E376F336B86D8010EA6
:10121000376F336B1B8581D81200356B352B346BE0
:10122000630E2F612F6F2FC131F1326B1B85EBD70E
:10123000356B352B346B2FC131F1326B1B95640E3E
:10124000376F336B6AD8DFD7356B352B1B8D040EA8
:10125000306107D0030E306308D0E70E2F612F6F87
:1012600004D0E70E2F6F030E306FE86A03D0356BA2
:10127000352BE86A346F219F1B8B342B342F1B9B3B
:101280001F8B342B342F1F9B2FC131F130C132F112
:101290001B95100E376F270E336F1BAD3ED8E80E2F
:1012A000376F030E336F1FBB07D021BF03D01B85E1
:1012B000342D1B951FB91B851BAD2FD81B9D640EAC
:1012C000376F336B23B924D01FBB09D021BF03D0A4
:1012D0001B85342D1B951FB91B851FBB1B851DD876
:1012E0000A0E376F336B1FBB09D021BF03D01B859C
:1012F000342D1B951FB91B851FBB1B8525B708D037
:101300000CD8010E376F336B1B8520A506D82095AE
:101310002399356B352B1F991200366B3351325D93
:10132000D8A00ED004E13751315DD8A009D0335197
:10133000325F3751315FD8A03207362B1B85EED78D
:10134000352F1200352B300E36251BB504D01BBFB0
:1013500004D0200E01D0218FDE6E342F12002E0E0D
:10136000DE6E1F891200A96E32D0A96E2CD01D9797
:10137000020EAA6E6E0E08D02791010EAA6E690E9B
:1013800003D02291AA6A640EAD6E1F8F040EA96E5F
:101390009D9A9E9A818646D8AECFA8FF818822BFAB
:1013A0000FD015D88198A8CFADFF36D8A93EF3D776
:1013B00081969E9A9D8AAA6A229F1F9FE9EF57F005
:1013C000FF0EAD6EF5D7A69EA69CA6801200A69E27
:1013D000A69CA684F29E550EA76EAA0EA76EA682A4
:1013E000F28EA6B2FED7A6941200948C948E240E90
:1013F000AC6E900EAB6E080EB86EB06A440EAF6E57
:10140000AE6A9E6A9D8A1200AC6AAB6A9D9A949CF1
:10141000949E829C829E1200ABAE12000000ACA291
:10142000FBD712009E9A229F3D6B3E6B9EBA120024
:1014300000000000000000000000000000000000AC
:101440009EBA120000000000000000000000000032
:10145000000000009EBA1200000000000000000022
:1014600000000000000000009EBA12000000000012
:101470000000000000000000000000009EBA120002
:101480003E2FD4D73D2FD1D7AB98AB88228F1200F7
:101490009D9A81EC04F0E00E6EEC06F02E0E81ECCD
:1014A00001F0AB98AB889E9AC80E3D6F9EBA11D0E2
:1014B000050ED7EC02F03D2FF9D7300E81EC01F08C
:1014C000080E3D6FFA0ED7EC02F03D2FFBD7E9EF87
:1014D00057F0C10EAE62F1D7010EAA6E07C1A8FF88
:1014E000060EB3EC09F006C1A8FF070EB3EC09F035
:1014F00005C1A8FF080EB3EC09F004C1A8FF090E4E
:10150000B3EC09F003C1A8FF0A0EB3EC09F002C165
:10151000A8FF0B0EB3EC09F0AA0EA86E050EB3ECF3
:1015200009F0AA6A2F0E81EC01F0F26A9E9AABEFE5
:10153000BFF0D26FAA6A1F0ED2650BD0010EAA6E41
:10154000200ED25F1F0ED26504D0020EAA6E200EAE
:10155000D25FD251040DF350820FA96EE3EC09F073
:10156000A850AA6A1200D26FAA6A1F0ED2650BD0C9
:10157000010EAA6E200ED25F1F0ED26504D0020E9D
:10158000AA6E200ED25FD251040DF350820FA96EC5
:10159000E3EC09F0A8CF2FF1A92AE3EC09F0A8CFDA
:1015A00030F1AA6A1200020EE8CF55F0E10EE8CF42
:1015B00056F0C10EE8CF57F013D0010EE8CF55F02A
:1015C000BA0EE8CF56F09A0EE8CF57F009D0000EC9
:1015D000E8CF55F01B0EE8CF56F0240EE8CF57F0B9
:1015E0001B8F81EC04F0010EAE6F1D991C999E6B50
:1015F0004C6A1E9D010E546E09EC15F056C0E8FFB2
:1016000083EC01F011EC15F055C0AAFFAC6B1D91F5
:101610001D93140EE8CF82F0230EE8CF80F020EE69
:1016200060F09EC12FF155C0E8FF200DF3502F2729
:101630000DEC09F045EC5DF03A20000057C0E8FFE2
:101640009E2583EC01F097D84D50050A12E1140E47
:10165000E8CF82F0410EE8CF80F020EE60F0BFECE2
:101660000CF0DFEC02F05F0EE8CF80F0DFEC02F070
:1016700022D0140EE8CF82F0410EE8CF80F047EC84
:101680005DF02B2F2D3A20002B0E1EBD2D0EDE6E91
:10169000DFEC02F05F0EE8CF80F047EC5DF0D8E0C1
:1016A000E33A2000306B54C02FF150EC0CF045ECC5
:1016B0005DF020202000140EE8CF82F07D0EE8CFF0
:1016C00080F020EE60F0590E7EEC01F04EC02FF15C
:1016D0004FC030F1DBEC0BF0140EE8CF82F09B0E24
:1016E000E8CF80F020EE60F0610E7EEC01F04C500F
:1016F000820FA96EE3EC09F0A8CF50F04C50830F95
:10170000A96EE3EC09F0A8CF51F011EC15F050C030
:101710002FF151C030F1DBEC0BF058D80B0E83ECFD
:1017200001F0CCEC0DF046EC1CF065EC37F01DB38D
:101730000FD01DB12BD11CB3E9EF57F01CB1A2ECB7
:1017400046F01CB1D9EC4EF01C911CB92BD1EDD751
:10175000AE2B4D50050A03E1040EAE65AE6F070EC9
:10176000AE6302D0010EAE6FAC6B46EC1CF0CCEC5D
:101770000DF01D93DAD7640EF66E1F0EF76E000E95
:10178000F86E55C0E8FF800DF3504C24F626F45057
:10179000F7220900F5CF4EF00900F5CF4FF04FAE1C
:1017A0004F6A4F9EF5CF4DF00900F5CF52F009007A
:1017B000F5CF53F01200AACFE2FF72D8E82A03E077
:1017C000DED8DFEC02F0E2CFAAFF1200AACFE2FFE0
:1017D000410EE8CF80F0640EE8CF82F020EE60F09A
:1017E0004DBE20D04DAA1ED04DA80DD050C04CF1FA
:1017F0004D6B50BE4D6952C04EF14F69CEEC01F0B9
:101800001BA709D003D05250505C05E20DEC15F037
:10181000010EE8CF85F049EC5DF03E20000052C09B
:101820002FF13ED8ACD820EE67F0DFEC02F05F0E6F
:10183000E8CF80F011EC15F0000EE8CF85F020EE37
:1018400060F04DBE20D04DAC1ED04DA80DD053C081
:101850004CF14D6B50C04EF14F6B50BE4F69CEEC0A
:1018600001F01BA709D003D05050535C05E20DECEA
:1018700015F0010EE8CF85F049EC5DF03C2000004A
:1018800053C02FF10DD87BD820EE67F0DFEC02F0CB
:1018900011EC15F0000EE8CF85F0E2CFAAFF1200A0
:1018A0004D5069E64DA808D02FAF04D02D0EDE6E46
:1018B0002F6D02D02B0EDE6E4D500F0B5AE0E84E0E
:1018C0000DD0E84E11D0E84E15D0E84E19D0E84EB4
:1018D0001BD0E84E23D0E84E32D04BD01B9F18ECE3
:1018E00009F0250EDE6E000C306B1B8F040E3AECF7
:1018F00009F0000C306B1B8F030E3AEC09F0000C62
:10190000020E3AEC09F0000C2F5104E0820E7EEC3E
:1019100001F0000C830E7EEC01F0000C306BBBEC90
:1019200001F02FC1F5FF30C12FF11B8F18EC09F02A
:101930003A0EDE6EF5CF2FF10DEC09F0000C1B9F77
:1019400018EC09F080C0E8FF5F0AD8B4FF0C45EC42
:101950005DF020002F516EEC06F0170EE8CF81F0FD
:101960006E0EE8CF82F0270EE8CF83F023EC04F070
:10197000FF0C306B1B8F309F37EC09F0000CD950F7
:101980007208D8B81200200EDE6EF9D755C0AAFF33
:10199000AE4F0ED0AE4F16D0AE4F18D0AE4F2DD0AA
:1019A000AE4F40D055C0AEF1AE2BAA6A3FEF0EF05D
:1019B0009E2B9EBB9E6B9E51040DF3CF4CF0010EEF
:1019C000AE6F20D61E7D020EAE6F1CD60A0E5402DC
:1019D000F45003E0010E546E0DD04D500F0B060A6B
:1019E00007E1640EF31804E13C0EE8CF54F002D096
:1019F000F3CF54F0030EAE6F05D64C50820FA96E94
:101A00004EC0A8FF4EC050F0E7EC09F04C50830FD9
:101A1000A96E4FC0A8FF4FC051F0E7EC09F0040ECB
:101A2000AE6FF0D54C50820FA96EE3EC09F0A8CF51
:101A30002FF14C50830FA96EE3EC09F0A8CF30F1E1
:101A40004D50050A02E12F7111D054501EAD08D03F
:101A50002F5F000E4DBE305B7F0E30BF306F06D063
:101A60002F27000E4DBE302330BF306B4C50820FFD
:101A7000A96E2FC1A8FFE7EC09F04C50830FA96EA7
:101A800030C1A8FFE7EC09F0050EAE6FBBD53F0EE5
:101A9000C16302D0C16B1200000EE8CF55F01F0EDB
:101AA000C16509D0010EE8CF55F03F0EC16503D0E6
:101AB000020EE8CF55F0C151E836E8367C0B4C6E8B
:101AC00026D8E81202E0C12BE2D73F0EC117000E64
:101AD000E8CF80F07D0EE8CF82F0000EE8CF84F0F2
:101AE000010EE8CF85F00DEC15F047EC5DF0C4CFAA
:101AF0000000C1C12FF10DEC09F045EC5DF02100B3
:101B0000000EE8CF85F0C1293F0BC16F120033DE14
:101B10004DBE04D04D50600B01E1FF0CC1513F0B95
:101B20004DAE0FD020DD52502F5F5350E89E305BFA
:101B30002F51301101E1FF0C53AE307D30AD000C60
:101B4000FF0CF7DC2F6F4DAA12D04DA80DD02FC17E
:101B50004CF14D6B2FBF4D6952C04EF14F69CEEC29
:101B600001F01BA704D0000C526401D0000C4DAC56
:101B7000FF0C4DA80DD053C04CF14D6B2FC14EF151
:101B80004F6B2FBF4F69CEEC01F01BA7FF0C000C71
:101B90002F515360FF0C000C2097209912002797BB
:101BA0008196010EAE6F81EC04F0A9EC0FF06BECA6
:101BB0001CF046EC1CF0EAEC0DF01DB11BD01CAF84
:101BC000E9EF57F01CB1A1EC0FF01C911CB9E9EF43
:101BD00057F0F1D71BB365EC08F020A908D01D839E
:101BE000AE2B060EAE6518D0010EAE6F15D020B725
:101BF0001D811200AE4FADEF30F0AE4F53EF3FF00E
:101C0000AE4F72EF10F0AE4F3CEF0EF0AE4F12EF52
:101C10000EF0AE4FE9EF57F0AC6B46EC1CF0CCEC9D
:101C20000DF01200010EAE6F1B9F81EC04F0A9ECC9
:101C30000FF0EFEC1CF046EC1CF0EAEC0DF01DB1DF
:101C400009D01CAFACD71CB1A1EC0FF01C911CB992
:101C5000A6D7F3D7AE4F06EF12F0AE4F65EF39F0CF
:101C6000AE4F2CEF3EF0AE4F82EF59F0AE4FB7EFD4
:101C70005EF0060EAE6F97D72797010EAE6F1B9FD3
:101C800081EC04F0A7EC1CF0A9EC0FF075EC0EF061
:101C900046EC1CF0EAEC0DF01DB10BD01CAFE9EFE7
:101CA00057F01CB1A1EC0FF01C911CB9E9EF57F0F3
:101CB000F1D7AE4FE7EF0AF0AE4FDDEF0AF0AE4FCF
:101CC00072D4AE4F03D0AE4F5ED03CD02787220EE9
:101CD000B5EC09F0A82A070EA86201D0A86AE7ECC3
:101CE00009F0040EAE6F2099CFD7220EB5EC09F0A3
:101CF000A86604D0650E83EC01F01200A82E04D073
:101D0000660E83EC01F01200A82E04D0680E83EC5E
:101D100001F01200A82E04D08A0E83EC01F012000C
:101D2000A82E04D0980E83EC01F01200A82E04D047
:101D3000EC0E83EC01F01200A82E1200E20E83ECF0
:101D400001F0120027A7E9EF57F081EC04F009EC4D
:101D500015F0EB0E83EC01F011EC15F0220EB5EC52
:101D600009F0070EA802F3503A0FAE6F070E366F58
:101D7000AE5181EC01F0AE2B362FFAD71E0E22ECBD
:101D800059F0E9EF57F0010EAE6F1B9F81EC04F0A4
:101D9000D5EC1CF0A9EC0FF092EC0FF045EC0FF035
:101DA0000EEC0FF046EC1CF075EC0FF0EAEC0DF0C9
:101DB0001DB10BD01CAFE9EF57F01CB1A1EC0FF037
:101DC0001C911CB93CEF0EF0F1D7AE4F4FD0AE4F87
:101DD00096D0AE4F07D0AE4F0DD0AE4F69D0060EA5
:101DE000AE6F4DD7FFEC58F01DEC59F0030EAE6FFF
:101DF0002099CBD71A0EB5EC09F0A82A630EA86477
:101E00000AD0690EA86007D01A0EB3EC09F0040ED0
:101E1000AE6F2099BFD7640EA86EF6D71A0EB5EC38
:101E200009F0630EA8641CD8690EA86019D87D0E4D
:101E3000E8CF80F05A0EE8CF82F0000EE8CF84F0B1
:101E400020EE60F0A8CF2FF1306B1B8F030E3AEC21
:101E500009F01B9F45EC5DF0EAE32FEB0000120058
:101E6000640EA86E1A0EB3EC09F012005B0EB5EC0E
:101E700009F0A82A020EA86401D0A86A5B0EB3EC90
:101E800009F0010EAE6F209985D75B0EB5EC09F015
:101E9000A86604D0030E81EC01F01200A82E04D035
:101EA000040E81EC01F01200050E81EC01F012002D
:101EB000030EA96E010EAA6EE3EC09F01F95000E49
:101EC000A8621F851F7511D800EC06F0030EA96EDD
:101ED000010EAA6E000E1FB5010EA86EE7EC09F008
:101EE000AA6A050EAE6F209955D71FB504D0380EDB
:101EF00081EC01F01200390E81EC01F01200270E86
:101F0000B5EC09F0A82A010EA86401D0A86A270E32
:101F1000B3EC09F02685010EA8622695020EAE6F7D
:101F2000209938D7270EB5EC09F0A86603D0830EA8
:101F300083EC01F0A806A866E7D6820E83EC01F0D8
:101F40001200D9EC4EF0A2EC46F01CB3E9EF57F0CA
:101F50001200AC6B1B9F1C991D911D931C8F209729
:101F600020991200646332FA4B631464F080588243
:101F700078661EF00566011E076003128884B603AA
:101F80003884380414610163146101162D66053C20
:101F90006E616EC85A61325A3C613C64646132645D
:101FA0000A4100640A42001413631015A04300A004
:101FB0008C4300960A6001780640000F0640000F2F
:101FC0000640000F0040000F0040000F0C40000FC3
:101FD0001461054B00800000036002060A66010FD1
:101FE000000500001E61055A55611E5FC70700000D
:101FF000FF0700003E070000E007000000050000AA
:1020000000050000010500000105000001050000B9
:10201000C8B2C8B26561326565613265A16364A109
:102020000F600714007688780005000000050000A6
:10203000010500000005000000050000000500008B
:102040000040000A14600532146005320040000AA6
:102050000080589B0005000000050000044100645A
:102060000A4000646707000000050000000500004A
:102070001E61055A5A611E5F00050000B4660AFA27
:1020800033621E411D62193265624BC90887108E8A
:102090000000000000000000000000000000000040
:1020A0000000000000000000000000000000000030
:1020B0000000000000000000000000000000000020
:1020C0000000000000000000000000000000000010
:1020D0000000000000000000000000000000000000
:1020E00000000000010EAE6F81EC04F009EC1DF061
:1020F000A9EC0FF009EC1DF046EC1CF0EAEC0DF039
:102100001DB116D01CAF4BD51CB1A2EC46F01CB1D2
:10211000D9EC4EF01CB169EC45F01CB131EC55F036
:102120001C911CB9CFEF0DF01CB3E9EF57F0E6D7C7
:10213000AE4F08D0AE4F49D0AE4F16D0AE4F05D0FF
:10214000AE4F22D0030EAE6F2ED588EC20F0AE6FCE
:10215000AE6701D0F7D767EC03F0000E9B6E7E0EE2
:10216000D36EFF0000EF00F088EC20F0AE6FAE679A
:1021700001D0E8D781EC04F07A697B69190E83EC11
:1021800001F0DBEC11F0DED788EC20F0AE6FAE672B
:1021900001D0D8D781EC04F0190E83EC01F082C194
:1021A000E8FFE8CF02F381C101F382C1F5FFF51822
:1021B000F6E173EC67F046EC70F002EC76F00101AA
:1021C000BF6BC06B2391E9EF57F088EC20F0AE6F46
:1021D000AE6701D0B7D781EC04F0190E83EC01F0A3
:1021E00082C1E8FFE8CF02F381C101F382C1F5FFAC
:1021F000F518F6E173EC67F046EC70F002EC76F05F
:102200000101BF6BC06B239188D802D8E9EF57F06A
:10221000010EA86E210EB3EC09F0040EA86E220E7A
:10222000B3EC09F0A86A230EB3EC09F0A86A270EF4
:10223000B3EC09F0A86A5A0EB3EC09F0010EA86ECF
:102240005B0EB3EC09F0640EA86E1A0EB3EC09F045
:102250001F0EA86E1B0EB3EC09F0A86A1C0EB3EC9F
:1022600009F0A86A1D0EB3EC09F0A86A1E0EB3ECC3
:1022700009F0A86A1F0EB3EC09F0A86A200EB3ECAF
:1022800009F0500EA86E240EB3EC09F0640EA86E8F
:10229000250EB3EC09F0780EA86E260EB3EC09F00B
:1022A000A86A750EB3EC09F0760EB3EC09F0770E60
:1022B000B3EC09F0740EB3EC09F0BF6BC06BAA6A03
:1022C0007F0EA96E640EF66E1F0EF76E000EF86E8E
:1022D000F650E40802E052D8FBD7010EAA6E7F0E3A
:1022E000A96EE40EF66E1F0EF76E000EF86EF65035
:1022F000640802E043D8FBD7020EAA6E7F0EA96ED7
:10230000640EF66E200EF76E000EF86EF650E408BE
:1023100002E034D8FBD7AA6A1200AA6A030EA96E9B
:10232000306B150E2F6F1FD81ED81DD81CD81BD888
:102330001AD819D818D817D816D815D85E0EA96E7D
:1023400012D811D810D80FD80ED80DD80CD80BD859
:102350000AD809D8010EA86E210EB3EC09F0730E4D
:10236000B3EC09F01200A92A2FC1A8FFE7EC09F08D
:10237000A92A30C1A8FFE7EC09F012000900F5CF47
:102380002FF10900F5CF30F10900090030AF306BB3
:10239000309F02D8309F00D0A92A2FC1A8FF7F0EFE
:1023A000A960E7EC09F0A92A30C1A8FF7F0EA96057
:1023B000E7EC09F01200B16BB26B040EF0B3020E41
:1023C000336F346B400EF0B3800E376F1F93386954
:1023D0003851A2EC2FF0372FFAD7C58478EC30F0C3
:1023E000070ED7EC02F0342FEDD7332FEAD71F9327
:1023F000B16BB26BFD0E9CEC2FF0FD0E9CEC2FF040
:10240000FE0E9CEC2FF0B16BB26B120081EC04F06D
:10241000A9EC0FF01D951D991E911E931E95AF6B93
:1024200009EC15F01D0E83EC01F011EC15F0160E01
:1024300083EC01F0170E83EC01F037EC12F0180E6C
:1024400083EC01F020B9F3EC12F020B7BDEC12F0F0
:102450001DB93ED01CB1A2EC46F01CB1D9EC4EF037
:102460001C911CB986D01CB3E9EF57F0EBD7200EB6
:10247000E8CF82F0410EE8CF80F020EE60F0160E3B
:102480007EEC01F004C12FF10DEC09F03A0EDE6E86
:1024900003C12FF10DEC09F045EC5DF020200000A8
:1024A000200EE8CF82F05F0EE8CF80F020EE60F0E3
:1024B000170E7EEC01F006C1D7F105C1D8F107C1B6
:1024C000D9F115EC23F045EC5DF02020000012005E
:1024D00006C12FF12F4F1F0E2F4F1C0E2F4F1F0E17
:1024E0002F4F1E0E2F4F1F0E2F4F1E0E2F4F1F0E42
:1024F0002F4F1F0E2F4F1E0E2F4F1F0E2F4F1E0E32
:102500002F4F1F0E056502D0010E056F000EE8CF9C
:1025100082F0D70EE8CF80F0160E366FE4EC19F09B
:10252000050E096F026B1C911CA1FED71C9150EC8B
:1025300012F0200EE8CF82F0410EE8CF80F020EEBE
:1025400060F0160E7EEC01F004C12FF10DEC09F0E5
:102550003A0EDE6E03C12FF10DEC09F03A0EDE6E7D
:1025600002C12FF10DEC09F045EC5DF02000092FC0
:10257000DBD7010EAE6F14EF0EF01EB11D89AF2B2D
:10258000AFC1B0F1B04F1D85B04F1E85B04F1E8357
:10259000B04F1E81000EE8CF82F0D70EE8CF80F05A
:1025A00011EC15F020EE60F05E0E7EEC01F0AFC194
:1025B000B0F1B02F04D05A0E7EEC01F00FD0B02F46
:1025C00004D05B0E7EEC01F009D0B02F04D05C0E7D
:1025D0007EEC01F003D05D0E7EEC01F0DFEC02F04A
:1025E000CCEC0DF01200CCEC0DF0026B1EB120D043
:1025F0001EB310D01EB515D01DB506D0042B170E76
:1026000004651CD0046B1AD0032B3B0E036516D057
:10261000036B14D0052B1F0E056510D0010E056F3E
:102620000DD0062B0C0E066509D0010E066F06D0E4
:10263000072B140E076502D00A0E076F37EC12F055
:10264000CCEC0DF0120064516A5D776F65516B59E7
:10265000786F77357835736F746B78BF746973C131
:1026600075F174C176F19DEC02F0030E78AF010EA6
:10267000D89070336F33E82EFBD76F51775D796F49
:10268000705178597A6F62C173F163C174F179C185
:1026900075F17AC176F19DEC02F0040E7AEC02F04D
:1026A000100E7027270E71235E5170257B6F5F51CE
:1026B00071217C6FC80E6025736F000E6121746FED
:1026C0009DEC02F0050E7AEC02F0D8905D317E6F41
:1026D0005C317D6FB80E70270B0E712370517D2712
:1026E00071517E237B51685D736F7C516959746FA2
:1026F0007DC175F17EC176F19DEC02F0040E7AEC9D
:1027000002F0E80E7027030E712321AD0BD0050EE9
:10271000716504D0E80EB96F030EBA6FB9C170F1DC
:10272000BAC171F170517F277151802301E3F08D9F
:10273000640E6625736F000E6721746F79C175F1A1
:102740007AC176F19DEC02F0030E7AEC02F0C80E2D
:102750007027000E712370518D2771518E23120046
:10276000E6D8A00E3A6F0C0E526F1AD91200F5D8A7
:1027700051C169F150C168F11200D9D8900EF2D759
:10278000ECD851C16BF150C16AF1120001011F8FE9
:10279000CED80D0E526F540E3A6F02D9DED851C109
:1027A00055F150C154F10D0E526F580E3A6FF8D8D2
:1027B000D4D851C157F150C156F10D0E526F640E6D
:1027C0003A6FEED8CAD851C159F150C158F10D0E27
:1027D000526F680E3A6FE4D8C0D851C15BF150C156
:1027E0005AF155C15DF1D8905D33D8905D33D890E2
:1027F0005D3354C15CF1D88055A1D8905C33D8804A
:1028000055A3D8905C33D88055A5D8905C3356C179
:102810005EF1D88057A1D8905E33D88057A3D89066
:102820005E33D88057A5D8905E33D88057A7D8900C
:102830005E33D88057A9D8905E33D88057ABD890F4
:102840005E3357C15FF1D88054A1D8905F33D880F0
:1028500054A3D8905F33D88054A5D8905F33D890D4
:102860005F33D8905F33D8905F3359C160F1D8801F
:1028700058AFD8906037D88058ADD8906037616B2A
:1028800059BF618359BD61815BC162F1D8805AAF84
:10289000D8906237636B5BBF6381060E6225626FFF
:1028A000FF0E6321636F58C164F1649D56B1648D5E
:1028B000649F56B3648F656B56B5658156B7658363
:1028C00056B9658556BB6587746B080E736F64C116
:1028D00075F165C176F180EC02F06FC164F170C1F1
:1028E00065F1100E6427270E6523676B5AC166F1E8
:1028F000669F1F9F120080820000808E00000000F3
:1029000000000000D3B80DD8809E12008092000015
:10291000808E0000000000000000D3B802D8809E26
:102920001200000000000000000000001200E3DFC1
:10293000EDDFE1DFEBDFDFDFE9DFDDDFE7DFDBDF7F
:10294000E5DFD9DFE3DFD7DFE1DFD5DFDFDFDEDFA4
:10295000DDDFDCDFDBDFDADF1200080E526F10D8BC
:102960003AC151F1080E526F0BD83AC150F1808E26
:102970000000000000000000D3B8D3DF809E1200EA
:10298000808E0000000000000000D3B8CADF809EE7
:1029900080A8D89080B8D8803A37522FF1D712004B
:1029A000809E8082030E525F808E00000000000037
:1029B0000000D3B8B6DF809E0000000000000000D9
:1029C000D3B8AFDF808E0000000000000000D3B855
:1029D000A8DF809E0000000000000000D3B8A1DF47
:1029E000808E0000000000000000D3B89ADF809EB7
:1029F0003AAF80923ABF8082D8903A37808E0000FA
:102A0000000000000000D3B88CDF809E522FF0D76A
:102A10001200240E99EC0AF007D0250E99EC0AF06A
:102A200003D0230E99EC0AF02B6F000E2B6301D01C
:102A300018D0040E2B6301D014D0080E2B6301D0E4
:102A400010D0C00E2B6301D00CD0C40E2B6301D06C
:102A500008D0C80E2B6301D004D02B516EEC06F0C9
:102A60001200FF0E6EEC06F01200E84E67D0E84E42
:102A700092D0E84E9ED0E84EAAD0E84EC2D0E84EA2
:102A800034D0E84E00D082C1E8FFE8CF47F181C1E1
:102A900046F182C1F5FFF518F6E10A0E486F496B61
:102AA00009EC02F042C146F143C147F1A8CF48F119
:102AB000496BECEC01F0446715D043BF13D042C121
:102AC0004CF143C14DF12E0E99EC0AF0640DF3CF99
:102AD0004EF1F4CF4FF1CEEC01F01BA703D011EC77
:102AE00015F012000DEC15F01200280E99EC0AF00A
:102AF0002F6F010E2F631CD084C1E8FFE8CF30F1A7
:102B000083C12FF184C1F5FFF518F6E139EC2FF000
:102B100030C147F12FC146F113C22FF12F07640EC8
:102B2000486F496B09EC02F042512F5DD8B003D0D9
:102B300011EC15F012000DEC15F0120030C132F15D
:102B40002FC131F184C1E8FFE8CF30F183C12FF10B
:102B500084C1F5FFF518F6E139EC2FF02FC14CF1E7
:102B600030C14DF12B0EB3EC0AF02FC14EF130C144
:102B70004FF1CEEC01F01BA707D011EC15F032C1DC
:102B800030F131C12FF112000DEC15F032C130F1EE
:102B900031C12FF1120011C22FF12C0E99EC0AF065
:102BA0002F5DD8B003D011EC15F012000DEC15F02C
:102BB00012000BC22FF12D0E99EC0AF02F5DD8B048
:102BC00003D011EC15F012000DEC15F01200446763
:102BD00015D043BF13D042C14CF143C14DF12E0E6D
:102BE00099EC0AF0640DF3CF4EF1F4CF4FF1CEEC37
:102BF00001F01BA703D011EC15F012000DEC15F03D
:102C000012001BA708D03FC12FF12F0E99EC0AF03C
:102C10002F5DD8B003D011EC15F012000DEC15F0BB
:102C20001200C9C1CAF1C8C1C9F1C7C1C8F1C6C142
:102C3000C7F1C5C1C6F1E8CFC5F126A51200C00E87
:102C4000E8CF80F0640EE8CF82F0000EE8CF84F089
:102C5000000EE8CF85F011EC15F020EE60F0C551C4
:102C6000DE6EC651DE6EC751DE6EC851DE6EC951D2
:102C7000DE6ECA51DE6E45EC5DF0200012000101EF
:102C800013EC05F011EC15F0000EE8CF85F0850E81
:102C900083EC01F0860E83EC01F0870E83EC01F0EB
:102CA000880E83EC01F0640EE8CF80F00A0EE8CFC6
:102CB00082F020EE60F0D4C12FF1D5C130F137ECB5
:102CC00009F0200EDE6EC551DE6EC651DE6EC751B4
:102CD000DE6EC851DE6EC951DE6ECA51DE6E49EC41
:102CE0005DF02E2000001BC12FF118EC09F0200E22
:102CF000DE6E1CC12FF118EC09F0DFEC02F07D0E46
:102D0000E8CF80F020EE60F01DC12FF118EC09F043
:102D1000200EDE6E1EC12FF118EC09F0200EDE6EC3
:102D20001FC12FF118EC09F0200EDE6E20C12FF12B
:102D300018EC09F0200EDE6E21C12FF118EC09F01D
:102D4000DFEC02F0960EE8CF80F020EE60F022C1BA
:102D50002FF118EC09F0200EDE6E23C12FF118ECD4
:102D600009F0200EDE6E24C12FF118EC09F0200EC0
:102D7000DE6E25C12FF118EC09F0200EDE6E26C1A3
:102D80002FF118EC09F0DFEC02F0CCEC0DF081969D
:102D900002A1818620A7FBD78196CCEC0DF0120012
:102DA00009EC15F00B0E81EC01F0560E83EC01F0EE
:102DB000570E83EC01F011EC15F01200A5EC5DF05C
:102DC000A8485A461200A5EC5DF01961524E120057
:102DD000A5EC5DF036735A461200FAEC16F01CBFF3
:102DE0001200F6DF09EC15F0540E83EC01F011EC43
:102DF00015F01200080E366F910EE8CF80F0000E2D
:102E0000E8CF82F0E4EC19F01200420E99EC0AF0DF
:102E1000E82E01D0A7D81CBF12007A0E11EC16F0D4
:102E2000880EE8CF80F0760EE8CF82F0010EE8CF72
:102E300084F0000EE8CF85F011EC15F020EE60F084
:102E400008C22FF118EC09F045EC5DF02700000EE8
:102E5000E8CF84F012001CBF1200BADF239B09ECFC
:102E600015F0550E83EC01F0520E83EC01F011ECDD
:102E700015F012001CBF74D0790E11EC16F0500E34
:102E8000E8CF80F0010EE8CF84F0000EE8CF85F0A7
:102E90001B9F060E35EC15F025BD8DEC1EF020EEC7
:102EA00060F013C22FF11B9F290E99EC0AF0E8B0D5
:102EB00025D0500EE8CF82F0306B5EEC2FF024EC82
:102EC00009F0DFEC02F05B0EE8CF80F0730EE8CF84
:102ED00082F0000EE8CF84F020EE60F043EC5DF06D
:102EE000F4F20000500EE8CF80F0820EE8CF82F0BE
:102EF000010EE8CF84F020EE60F007D05E0EE8CF40
:102F000082F0F9EC08F0EC0EDE6E14C22FF1F9EC51
:102F100008F045EC5DF02700000EE8CF84F0780E55
:102F200011EC16F0880EE8CF80F05E0EE8CF82F04C
:102F3000010EE8CF84F0000EE8CF85F011EC15F01B
:102F400025BD8DEC1EF020EE60F004C22FF105C20D
:102F500030F137EC09F045EC5DF0270011EC15F08D
:102F600001D812000BC22FF1080E99EC0AF02F6164
:102F700003D0FAEC16F01200770E11EC16F0910E59
:102F8000E8CF80F0000EE8CF82F0000EE8CF84F0AA
:102F9000030E35EC15F047EC5DF0C3D43A000BC2DC
:102FA0002FF118EC09F045EC5DF02520000011EC44
:102FB00015F01200E06705D0239B1CBB09DF1C9BAA
:102FC0000CD71CBB08D01C8B1CBF05D009EC15F01E
:102FD000E30E83EC01F0E0071CBF1200E0C12FF10B
:102FE00011EC15F0500EE8CF80F0680EE8CF82F0BB
:102FF000010EE8CF84F0000EE8CF85F020EE60F0FF
:10300000306BBBEC01F030512FC130F12F6FF9EC78
:1030100008F03A0EDE6E30C12FF10DEC09F045ECF0
:103020005DF00000000EE8CF84F011EC15F0120006
:103030002AA31200D107D8A819D03B0ED16FD00710
:10304000D8A814D02A935B0EE8CF80F0400EE8CFCA
:1030500082F0000EE8CF84F0040E366FE4EC19F035
:10306000370E99EC0AF0D06FD16B12001CBF120022
:10307000FD0E6EEC06F05B0EE8CF80F0400EE8CF60
:1030800082F0000EE8CF84F0000EE8CF85F020EE4D
:1030900060F0D0C12FF11B8F18EC09F03A0EDE6EF4
:1030A000D1C12FF10DEC09F045EC5DF0000011EC01
:1030B00015F01B9F1200140EE8CF82F0000EE8CF2F
:1030C00084F011EC15F0230EE8CF80F020EE60F0D4
:1030D000330E7CEC01F019C32FF12F5105E1340EB2
:1030E0007CEC01F0DE6A08D01B8F18EC09F049EC8B
:1030F0005DF030ECE8ED2000DFEC02F05F0EE8CF91
:1031000080F020EE60F0150E7CEC01F0E7C12FF1AD
:103110001B8F18EC09F045EC5DF0ECE8ED200000A9
:103120007D0EE8CF80F020EE60F0160E7CEC01F012
:10313000E8C12FF11B8F290E99EC0AF0E8B00CD0F2
:10314000306B5EEC2FF024EC09F045EC5DF0F4F20E
:10315000202000001B9F120018EC09F045EC5DF0E8
:10316000EC2020001B9F1200360EE8CF80F06E0E80
:10317000E8CF82F0000EE8CF84F0010EE8CF85F0B2
:103180000DEC15F047EC5DF09400ABC12FF1ACC134
:1031900030F1BBEC01F030512FC130F12F6F0DEC4D
:1031A00009F03A0EDE6E30C12FF10DEC09F045EC5E
:1031B0005DF020001F8111EC15F0000EE8CF85F0C6
:1031C0001200360EE8CF80F06E0EE8CF82F0000ECF
:1031D000E8CF84F011EC15F047EC5DF09400020E9E
:1031E000B3EC0AF02FC14CF130C14DF1ABC14EF13F
:1031F000ACC14FF1CEEC01F04AC12FF14BC130F11F
:10320000BBEC01F030512FC130F12F6F0DEC09F004
:103210003A0EDE6E30C12FF10DEC09F045EC5DF099
:1032200020001F81120021B12BEC17F0360EE8CFE1
:1032300080F06E0EE8CF82F0060E366F1F91C4D07C
:10324000A5EC5DF01447410B71D01BA7F9D7278976
:103250003FC130F1A5EC5DF01447410B240E99EC11
:103260000AF0E8EC5DF01447410B240E99EC0AF0EB
:10327000E8EC5DF01E33410B240E99EC0AF0E8EC0B
:103280005DF0281F410B240E99EC0AF0E8EC5DF08C
:10329000320B410B2F0E99EC0AF0466F476B050E6F
:1032A000486F496B09EC02F030C146F1476B42C1EF
:1032B00048F1496B09EC02F030C13FF1070E426161
:1032C00013D0060E426117D0050E42611BD0040ECA
:1032D00042611CD0030E42611DD0020E42611ED01D
:1032E000010E42611FD022D0250E99EC0AF0A2EC0B
:1032F0005DF016074307250E99EC0AF0A2EC5DF08D
:10330000200743079FEC5DF02A0743079FEC5DF021
:10331000340743079FEC5DF03E0743079FEC5DF0E9
:10332000480743079FEC5DF052074307760E11EC08
:1033300016F05B0EE8CF80F0000EE8CF82F0000EB2
:10334000E8CF84F0050E35EC15F020EE60F02D0E80
:103350001BB72B0EDE6E3FC12FF1290E99EC0AF040
:10336000E8B009D0306B5EEC2FF024EC09F0800E51
:103370007CEC01F007D0F9EC08F0530E7EEC01F084
:10338000DFEC02F011EC15F0278912003C0E99ECED
:103390000AF02F6F010E2F6304D0A5EC5DF01447E7
:1033A000410B0A0E366F5A0EE8CF80F0000EE8CFC0
:1033B00082F0279909D0A5EC5DF0001A00A0120058
:1033C000010EE8CF84F003D0000EE8CF84F020EEA9
:1033D00060F0200EDE6E362FFCD7DFEC02F0000E20
:1033E000E8CF84F0120009EC15F0FF0E83EC01F039
:1033F00011EC15F0C00EE8CF80F07B0EE8CF82F024
:10340000000EE8CF84F0000EE8CF85F011EC15F047
:1034100020EE60F004C12FF10DEC09F03A0EDE6EE3
:1034200003C12FF10DEC09F0DFEC02F01200D80E11
:10343000E8CF80F0740EE8CF82F0000EE8CF84F081
:10344000000EE8CF85F011EC15F021A126D047EC55
:103450005DF0940004C1E8FF3C0D0351F326000E1B
:10346000F422F3CF2FF1F4CF30F104C2E8FF2F277D
:1034700005C2E8FF3023BBEC01F030512FC130F121
:103480002F6F0DEC09F03A0EDE6E30C12FF10DEC0E
:1034900009F045EC5DF00000120043EC5DF02020E7
:1034A0002020202000001200630E11EC16F0320ED6
:1034B000E8CF80F0010EE8CF82F0000EE8CF84F074
:1034C000000EE8CF85F011EC15F020EE60F004C19D
:1034D0002FF10DEC09F03A0EDE6E03C12FF10DEC69
:1034E00009F03A0EDE6E02C12FF10DEC09F045EC49
:1034F0005DF0000012004B0EE8CF80F05A0EE8CFCE
:1035000082F0000EE8CF84F0000EE8CF85F011ECD9
:1035100015F020EE60F019C12FF11AC130F1BBECAB
:1035200001F030512FC130F12F6F0DEC09F03A0E40
:10353000DE6E30C12FF10DEC09F045EC5DF020009E
:1035400012005A0EE8CF82F0000EE8CF84F0000E91
:10355000E8CF85F009EC15F00E0E81EC01F05A0E63
:10356000E8CF82F0000EE8CF84F0000EE8CF85F0BF
:1035700011EC15F0C00EE8CF80F055C22FF12F6787
:1035800001D051D02F2B47EC5DF0C3001B8F18ECFE
:1035900009F049EC5DF020EDE02000001B0E2F2526
:1035A000A96EAA6AE3EC09F0A8CF2FF12F6701D02A
:1035B0003AD018EC09F01B9F49EC5DF06D2000003B
:1035C000E86AE8CF69F045EC5DF00000D80EE8CF7E
:1035D00080F056C22FF12F6701D02AD02F2B47EC55
:1035E0005DF0C3001B8F18EC09F049EC5DF020ED95
:1035F000E02000001B0E2F25A96EAA6AE3EC09F05B
:10360000A8CF2FF12F6701D013D018EC09F01B9F22
:1036100049EC5DF06D200000E86AE8CF69F045EC08
:103620005DF000001200A5EC5DF0C0305A461200BB
:10363000A5EC5DF0D8185A4612005D0EE8CF82F076
:10364000000EE8CF84F0000EE8CF85F009EC15F00D
:103650000C0E81EC01F0400E99EC0AF06EEC06F0D5
:103660001EA111EC15F0C00EE8CF80F047EC5DF024
:10367000C3D43A00200E99EC0AF02F6F1B8F18EC80
:1036800009F049EC5DF02F00210E99EC0AF02F6F44
:1036900018EC09F045EC5DF00000400E99EC0AF0E2
:1036A0006EEC06F01EB111EC15F0D80EE8CF80F0EC
:1036B00047EC5DF0E4C3D43A0000430E99EC0AF005
:1036C0002F6F1B8F18EC09F049EC5DF02F00440EB2
:1036D00099EC0AF02F6F18EC09F045EC5DF0000052
:1036E0001B9F11EC15F01200190EE8CF80F05A0E56
:1036F000E8CF82F0000EE8CF84F0000EE8CF85F02E
:1037000011EC15F047EC5DF0CAD1E0F23A000B0E77
:1037100099EC0AF02F6F1B8F18EC09F045EC5DF067
:103720002500320EE8CF80F047EC5DF0CAC4E5F129
:103730003A000C0E99EC0AF02F6F1B8F18EC09F071
:1037400045EC5DF025004B0EE8CF80F047EC5DF0D6
:10375000D1F2EEEF3A001D0E99EC0AF02F6F1B8F9D
:10376000290E99EC0AF0E8B00BD0306B5EEC2FF02C
:1037700037EC09F045EC5DF0F4F200001B9F1200FD
:1037800018EC09F045EC5DF0EC001B9F1200190EDF
:10379000E8CF80F05A0EE8CF82F0000EE8CF84F038
:1037A000000EE8CF85F011EC15F0200E99EC0AF030
:1037B0002F6F47EC5DF0C3D4EDE8E63A00001B8FB5
:1037C00018EC09F045EC5DF02500320EE8CF80F0F2
:1037D000210E99EC0AF02F6F47EC5DF0C3D4E2F0B4
:1037E000F53A00001B8F18EC09F045EC5DF0250060
:1037F0004B0EE8CF80F020EE60F03E0E99EC0AF020
:103800002F6F1B8F18EC09F049EC5DF02520312F4C
:1038100000003F0E99EC0AF02F6F18EC09F01B9F87
:1038200045EC5DF000001200190EE8CF80F05A0E52
:10383000E8CF82F0000EE8CF84F0000EE8CF85F0EC
:1038400011EC15F0200E99EC0AF02F6F47EC5DF0AB
:10385000C3D4EDE8E63A00001B8F18EC09F045EC04
:103860005DF02500320EE8CF80F0210E99EC0AF0D1
:103870002F6F47EC5DF0C3D4E2F0F53A00001B8FE8
:1038800018EC09F045EC5DF025005DD7A5EC5DF086
:1038900023CD0011000EE8CF82F0000EE8CF84F0B7
:1038A000000EE8CF85F011EC15F0AEC136F1364FC1
:1038B000230E364F410E364F5F0E364F7D0E364F7C
:1038C0009B0E364FB90E364FD70EE8CF80F043EC43
:1038D0005DF0B700120009EC15F0050E83EC01F065
:1038E00011EC15F0060E83EC01F0070E83EC01F0ED
:1038F000090E83EC01F00A0E83EC01F08E0E83ECCE
:1039000001F00B0E83EC01F0D70EE8CF80F02F0E04
:10391000E8CF82F0400E99EC0AF06EEC06F020EE53
:1039200060F0060E7CEC01F0AA6AA96AE3EC09F0EB
:10393000A8CF2FF1A92AE3EC09F0A8CF30F11B8F13
:1039400037EC09F0DFEC02F011EC15F0120009EC95
:1039500015F0620E83EC01F011EC15F0630E83ECB0
:1039600001F0990E83EC01F0270E81EC01F0640E5A
:1039700083EC01F08E0E83EC01F00B0E83EC01F072
:10398000120009EC15F06F0E83EC01F011EC15F04C
:10399000E50E83EC01F0E60E83EC01F0EA0E83EC19
:1039A00001F00B0E83EC01F0120009EC15F0020E91
:1039B00081EC01F011EC15F0010E81EC01F0810EAB
:1039C00083EC01F0BB0E83EC01F0140E81EC01F0EE
:1039D000180E81EC01F00B0E83EC01F0120009ECE3
:1039E00015F0900E83EC01F011EC15F0080E83EC4D
:1039F00001F06E0E83EC01F0710E83EC01F0F70E16
:103A000083EC01F01F0E81EC01F00B0E83EC01F052
:103A1000120009EC15F01C0E83EC01F011EC15F00E
:103A2000150E83EC01F0F50E83EC01F01C0E81EC19
:103A300001F01D0E81EC01F01E0E81EC01F00B0E69
:103A400083EC01F0120009EC15F0F80E83EC01F0A4
:103A500011EC15F0330E81EC01F0F90E83EC01F05E
:103A6000150E81EC01F0160E81EC01F0170E81ECC1
:103A700001F00B0E83EC01F01200650E11EC16F054
:103A800090C1E8FFE8CF92F18FC191F190C1F5FFAD
:103A9000F518F6E1640EE8CF80F0010EE8CF82F071
:103AA000000EE8CF84F0000EE8CF85F011EC15F0A1
:103AB00092C130F191C12FF120EE60F078EC2FF03F
:103AC0000CEC23F0030E356F1B8F020E3AEC09F05D
:103AD0001B9F290E99EC0AF0E8B005D045EC5DF08B
:103AE000B0462000120045EC5DF0B043200012000B
:103AF000750E11EC16F090C1E8FFE8CF92F18FC17E
:103B000091F190C1F5FFF518F6E1D80EE8CF80F0FD
:103B1000320EE8CF82F0000EE8CF84F0000EE8CF3E
:103B200085F011EC15F092C130F191C12FF120EE2A
:103B300060F078EC2FF00CEC23F0030E356F1B8F48
:103B4000020E3AEC09F01B9F49EC5DF0B02000003A
:103B5000E86AE8CF65F0DFEC02F01200740E11ECB9
:103B600016F0750EE8CF80F0000EE8CF82F0000E60
:103B7000E8CF84F0040E35EC15F047EC5DF0707082
:103B80004F323A0044670FD042C12FF143C130F1A8
:103B90002587010E3AEC09F0259745EC5DF02000F1
:103BA00011EC15F0120049EC5DF03E362E360000A7
:103BB000F4D70A0E366F750EE8CF80F0000EE8CF0E
:103BC00082F0E4EC19F01200C00EE8CF80F0320E63
:103BD000E8CF82F0050E366FE4EF19F026BB120035
:103BE00024BF1200000EE8CF85F011EC1EF028ADC6
:103BF00012002A0E99EC0AF02F6F010E2F631200AB
:103C0000297729A71200FD0E6EEC06F0010EE8CF11
:103C100085F013EC1EF0000EE8CF85F011EC15F0E6
:103C2000120011EC15F0730E11EC16F0C00EE8CF77
:103C300080F0320EE8CF82F0000EE8CF84F0640E00
:103C40000DC32FF1D8802F550EC32FF1D8802F57D9
:103C5000090E99EC0AF00EC330F12F6501D005D0A2
:103C6000306703D00DEC15F024D0150E2F6321D052
:103C700030671FD020EE60F0080E7CEC01F0200EC3
:103C8000DE6EE86AE8CF65F01B9FDFEC02F0C00E45
:103C9000E8CF80F02B0EE8CF82F0000EE8CF84F062
:103CA00020EE60F0200E28BD2A0EDE6EDFEC02F062
:103CB000120020EE60F01B8F18EC09F02F0EDE6E64
:103CC0000EC32FF118EC09F0200EDE6EE86AE8CF83
:103CD00065F01B9FDFEC02F0DADF11EC15F012004B
:103CE0002F6F2F2B210EB5EC09F0A8502F5D10E09F
:103CF0001B0E2F25A96EE3EC09F0E86AA8640DD02D
:103D0000AA6A1B0EB5EC09F0A8322F2FFDD705E3E8
:103D1000230E99EC0AF06EEF06F0400E99EC0AF0D3
:103D20006EEF06F0190EE8CF80F05A0EE8CF82F061
:103D3000000EE8CF84F0000EE8CF85F011EC15F00E
:103D400020EE60F0890E7EEC01F0DFEC02F0320E26
:103D5000E8CF80F05A0EE8CF82F0210EB5EC09F0E2
:103D6000A8CF30F11B8F20EE60F047EC5DF0C30070
:103D700030C12FF118EC09F049EC5DF03A20000059
:103D8000040E3003F350020FA96EE3EC09F0A8CF44
:103D90002FF118EC09F02F0EDE6EA92AE3EC09F0E2
:103DA000A8CF2FF118EC09F01B9FDFEC02F01200F6
:103DB00002D025B145D06D0E11EC16F05A0EE8CFA9
:103DC00082F0000EE8CF84F01B8F020E096F000E08
:103DD000086F306B302B040E092747EC5DF0C300F1
:103DE00030C12FF118EC09F049EC5DF03A200000E9
:103DF00009C1A9FFE3EC09F0A8CF2FF118EC09F0F5
:103E00002F0EDE6EA92AE3EC09F0A8CF2FF118ECF3
:103E100009F0300570EC1EF0210EB5EC09F0A85049
:103E2000306301D009D0190E08275A0EE8CF82F06E
:103E300008C180F0DFEC02F0050E3063CBD7120032
:103E40005A0EE8CF82F0000EE8CF84F01B8F11EC01
:103E500015F0230E096F000E086FCB6B092BCB2BCF
:103E6000190E08275A0EE8CF82F008C180F047ECFF
:103E70005DF0D1CF0000CBC12FF118EC09F049EC77
:103E80005DF03A20000009C1A9FFE3EC09F0A8CFDA
:103E90002FF1306B030E3AEC09F0DFEC02F0030E69
:103EA000CB63DCD71AEC3EF05A0EE8CF82F0640EFA
:103EB000E8CF80F047EC5DF0C4E8EB3A000018EC86
:103EC00009F02F0EDE6E30C12FF118EC09F0DFEC97
:103ED00002F01B9F1200710E11EC16F026BB1200AF
:103EE00024BF120025A135D0870EE8CF80F05A0EEE
:103EF000E8CF82F0000EE8CF84F0000EE8CF85F026
:103F000011EC15F020EE60F0240EB5EC09F0A8CF0E
:103F10002FF1306B030E3AEC09F045EC5DF0E1E077
:103F2000F0001B8F1AEC3EF0A00EE8CF80F0680E78
:103F3000E8CF82F020EE60F018EC09F02F0EDE6E74
:103F400030C12FF118EC09F045EC5DF000001B9F2B
:103F50001200AA6A210EB5EC09F0A8CF30F1AF0E1D
:103F6000E8CF80F0000EE8CF84F0000EE8CF85F0B7
:103F7000000E70EC1EF0730EE8CF82F043EC5DF0A3
:103F80003100010E306304D0CCEC5DF0AE17720945
:103F9000010E70EC1EF07C0EE8CF82F043EC5DF079
:103FA0003200020E306304D0CCEC5DF0AE177B091A
:103FB000020E70EC1EF0850EE8CF82F043EC5DF04F
:103FC0003300030E306304D0CCEC5DF0AE178409EF
:103FD000030E70EC1EF08E0EE8CF82F043EC5DF025
:103FE0003400040E306304D0CCEC5DF0AE178D09C4
:103FF000040E70EC1EF0970EE8CF82F043EC5DF0FB
:104000003500050E306304D0CCEC5DF0AE17960998
:10401000820EE8CF80F0640EE8CF82F0010EE8CF88
:1040200084F011EC15F0210EB5EC09F0A8CFC3F126
:10403000C305040DF350070FA96EE3EC09F0A8CFF8
:104040000EF3C305040DF350060FA96EE3EC09F05F
:10405000A8CFC2F10EC309F1D880640E0955D880EB
:10406000A856A8CF0DF3640E0DC32FF1D8802F559D
:104070000EC32FF1D8802F570EC330F1150E2F63CA
:1040800006D0306704D0090E81EC01F0120020EE5A
:1040900060F01B8FF9EC08F00EC32FF12F6701D0F1
:1040A00004D02F0EDE6EF9EC08F01B9FDFEC02F05F
:1040B00019D82F6701D81200550EE8CF82F0000EF4
:1040C000E8CF84F0000EE8CF85F07F0EE8CF80F0D7
:1040D00043EC5DF05400940EE8CF80F043EC5DF0CB
:1040E00078001200550EE8CF82F07F0EE8CF80F006
:1040F000000EE8CF84F0000EE8CF85F043EC5DF0D1
:104100004E00940EE8CF80F043EC5DF07800120092
:10411000A5EC5DF0444F2244CCEC5DF0464B2342CD
:1041200009EC15F08F0E83EC01F011EC15F0910EF7
:1041300083EC01F0920E83EC01F0010EAE6FA5EC62
:104140005DF06030270DAEC136F1600E364F600E67
:10415000364F780EE8CF80F0270EE8CF82F0000EC1
:10416000E8CF84F0000EE8CF85F011EC15F043ECB9
:104170005DF0B7001C991D911D9320992097AC6BA1
:10418000640ED7EC02F065EC37F01DB315D01DB10D
:104190000ED01CB1A2EC46F01CB1D9EC4EF01C9133
:1041A0001CB903D01CB301D0EED7000C010CAE4FEC
:1041B000FCD7AE4FFBD7F9D7AE2B030EAE6302D0C0
:1041C000010EAE6FBCD784C1E8FFE8CF30F183C1E8
:1041D0002FF184C1F5FFF518F6E139EC2FF059EC19
:1041E0002FF0270E306177D027BB8EEC21F0279B74
:1041F00020EE60F0030E4D6FE80E4C6F30C14FF1B2
:104200002FC14EF14E2B000E4F23CEEC01F01BA719
:1042100082D8180EE8CF80F0000EE8CF82F0020EB0
:10422000E8CF84F0000EE8CF85F0010E35EC15F0F4
:10423000000E4D6F630E4C6F30C14FF12FC14EF128
:10424000CEEC01F01BA706D01B8F258737EC09F0B9
:104250001B9F02D0300EDE6EDFEC02F02597290E98
:1042600099EC0AF0E8A033D0010EE8CF84F0320ECA
:10427000E8CF80F0280EE8CF82F0010E35EC15F083
:1042800084C1E8FFE8CF30F183C12FF184C1F5FF8D
:10429000F518F6E139EC2FF047EC5DF02E00000E3A
:1042A0004D6F140E4C6F30C14FF12FC14EF1CEEC5B
:1042B00001F01BA707D0040E356F2085000E3AECE5
:1042C00009F002D0300EDE6EDFEC02F02095000E19
:1042D000E8CF84F0120027AB8EEC21F020EE60F0E6
:1042E000180EE8CF80F0000EE8CF82F0020EE8CF83
:1042F00084F0000EE8CF85F0010E35EC15F025872F
:104300001B8F37EC09F01B9FDFEC02F02597000EA6
:10431000E8CF84F01200200EDE6E1200A5EC5DF0F6
:104320001843005B278B120002C22FF103C230F149
:104330002F6703D0306701D01200680E11EC16F021
:10434000960EE8CF80F0010EE8CF82F0000EE8CFA5
:1043500084F0000EE8CF85F011EC15F020EE60F04F
:104360000E0E7EEC01F0200EDE6EDCC12FF1DDC101
:1043700030F1BBEC01F01B8F2F5130C12FF1306FAA
:1043800018EC09F03A0EDE6E30C12FF10DEC09F099
:104390001B9F200EDE6EDFEC02F01200BF51C01139
:1043A00001E11200670E11EC16F07D0EE8CF80F0EF
:1043B000010EE8CF82F0000EE8CF84F0000EE8CFC7
:1043C00085F011EC15F020EE60F0230E7EEC01F08C
:1043D000200EDE6EBFC12FF1C0C130F1BBEC01F089
:1043E0001B8F2F5130C12FF1306F18EC09F03A0EAE
:1043F000DE6E30C12FF10DEC09F01B9F200EDE6E3A
:10440000DFEC02F012001CBD1200620E11EC16F07F
:10441000190EE8CF80F0010EE8CF82F0000EE8CF51
:1044200084F0000EE8CF85F011EC15F082C1E8FFB2
:10443000E8CF30F181C12FF182C1F5FFF518F6E127
:1044400020EE60F02FC14CF130C14DF197C14EF11B
:1044500098C14FF1CEEC01F01BB71CD84B670ED0C2
:10446000050E4A5DD8B00AD098C1E8FFE8CF30F118
:1044700097C12FF198C1F5FFF518F6E11B8F37ECC6
:1044800009F01B9F45EC5DF0ECE1E0F0200011EC41
:1044900015F012002FC14EF130C14FF197C14CF110
:1044A00098C14DF1CEEC01F012000DEC15F0F60EB6
:1044B00083EC01F011EC15F01200EAC142F1EBC1FE
:1044C00043F1ECC144F1466B3C0E486F496B30EC54
:1044D00002F042C14EF143C14FF14A0EB3EC0AF073
:1044E0002FC14CF130C14DF1CEEC01F01BA734D0FF
:1044F000A5EC5DF0AE1501231200EAC142F1EBC15B
:1045000043F1ECC144F1466B3C0E486F496B30EC13
:1045100002F042C146F143C147F1640E486F496B56
:10452000ECEC01F04A0EB3EC0AF02FC148F130C1B7
:1045300049F130EC02F042C12FF1640E2F612F6F70
:104540002F5164082F6F640E2F612F6F1200660EBB
:1045500011EC16F002A1B1D71F0E99EC0AF02F6FE3
:10456000010E2F6327D0AF0EE8CF80F0010EE8CF09
:1045700082F0000EE8CF84F0000EE8CF85F0230E25
:1045800099EC0AF020B1F80E25B91C0E6EEC06F07D
:104590007DEC22F020EE60F047EC5DF0423A000046
:1045A0001B8F18EC09F01B9F45EC5DF0250011EC0A
:1045B00015F01200CCEC5DF0AE1501217DEC22F07F
:1045C0002F510A0DF4CF40F1F3CF3FF1050E416FAB
:1045D000C8EC01F03FC109F1030E0965096F9FECBA
:1045E0005DF0B5072103220E99EC0AF020B1F80E18
:1045F00025B91C0E6EEC06F0AF0EE8CF80F0130E5E
:10460000E8CF81F0020EE8CF82F009C183F023ECFD
:1046100004F011EC15F0120030AF12002D0EDE6E1A
:10462000301F2F6DD8B0302B12005B0EB5EC09F0A7
:10463000A8660BD0D7C12FF11B8F0DEC09F01B9F83
:104640002E0EDE6ED8C12FF10FD05B0EB5EC09F047
:10465000A82E16D0D8C12FF11B8F0DEC09F01B9F8F
:104660002E0EDE6ED7C12FF11B8F0DEC09F01B9FB4
:104670002E0EDE6ED9C12FF11B8F0DEC09F012004A
:10468000D9C12FF11B8F0DEC09F01B9F2E0EDE6E92
:10469000D7C12FF11B8F0DEC09F01B9F2E0EDE6E84
:1046A000D8C12FF11B8F0DEC09F012005B0EB5EC99
:1046B00009F0A8660FD0D7C12FF11B8F0DEC09F0C0
:1046C0001B9F2E0EDE6ED8C12FF11B8F0DEC09F053
:1046D0001B9F12005B0EB5EC09F0A82EECD7D8C1D9
:1046E0002FF11B8F0DEC09F01B9F2E0EDE6ED7C134
:1046F0002FF11B8F0DEC09F01B9F1200640E11ECC3
:1047000016F04B0EE8CF80F0010EE8CF82F0000EDD
:10471000E8CF84F0000EE8CF85F011EC15F020EE24
:1047200060F006C1D7F105C1D8F107C1D9F115EC88
:1047300023F0DFEC02F01200A5EC5DF0001B324725
:104740001200A5EC5DF0001B3233700E11EC16F078
:1047500085C12FF186C130F139EC2FF059EC2FF0E3
:10476000290E99EC0AF0E8A020D0270E30611DD068
:1047700020EE60F011EC15F0CF0EE8CF80F0000EC7
:10478000E8CF82F0010EE8CF84F0000EE8CF85F08C
:104790001B8F2085030E3AEC09F01B9F1B9DDFEC5D
:1047A00002F0000EE8CF84F0120029ADF4EC23F003
:1047B00020EE60F011EC15F0CF0EE8CF80F0000E87
:1047C000E8CF82F0010EE8CF84F0000EE8CF85F04C
:1047D00025871B8F37EC09F01B9FDFEC02F0259734
:1047E000000EE8CF84F01200A5EC5DF0CF21002A86
:1047F000298D12001CBF1200410E11EC16F026BBD1
:1048000074D0260E99EC0AF02F6F010E2F6301D0A1
:104810006CD099C12FF19AC130F11B9F20EE60F04E
:1048200024EC09F0140EE8CF80F0780EE8CF82F087
:10483000010EE8CF84F011EC15F0DFEC02F0000E71
:10484000E8CF84F012001CBF120009EC15F08C0EAA
:1048500083EC01F011EC15F0550EE8CF80F05A0E04
:10486000E8CF82F0010EE8CF84F011EC15F0D0C152
:104870002FF11B9F20EE60F018EC09F03A0EDE6E6F
:10488000D1C12FF10DEC09F0DFEC02F0000EE8CF02
:1048900084F01200A5EC5DF03C3C5A4612001CBFAF
:1048A000120009EC15F08B0E83EC01F011EC15F001
:1048B000910EE8CF80F05A0EE8CF82F0010EE8CFDB
:1048C00084F011EC15F0CBC12FF120EE60F018EC64
:1048D00009F03A0EDE6ECCC12FF10DEC09F0DFECE1
:1048E00002F0000EE8CF84F0120099C12FF19AC1B6
:1048F00030F11B9F1B8D20EE60F024EC09F03A0E86
:10490000DE6E9BC12FF10DEC09F0140EE8CF80F0A4
:104910005A0EE8CF82F0010EE8CF84F011EC15F0CA
:10492000DFEC02F01B9D000EE8CF84F0120009ECD2
:1049300015F01B0E81EC01F011EC15F0560E11EC88
:1049400016F0C00EE8CF80F06E0EE8CF82F0000EB9
:10495000E8CF84F011EC15F020EE60F0EEC12FF1FD
:10496000EFC130F1020E2F5F000E305BBBEC01F0A7
:104970002FC109F130C12FF1306B000E1B9F1B8D31
:1049800024EC09F03A0EDE6E09C12FF10DEC09F0AE
:10499000DFEC02F0550E11EC16F0D80EE8CF80F0E7
:1049A000000EE8CF84F011EC15F020EE60F087C126
:1049B0002FF188C130F139EC2FF0290E99EC0AF073
:1049C000E8B00FD07C0EE8CF82F05EEC2FF02587A8
:1049D00037EC09F025971B9F45EC5DF0F4F20000E1
:1049E00012006E0EE8CF82F02085030E3AEC09F03B
:1049F0001B9F45EC5DF0EC0012001CBF120009EC9F
:104A000015F0F0AB03D0360E81EC01F0350E81ECE1
:104A100001F011EC15F0560E11EC16F0560EE8CF21
:104A200080F0F0AB26D05A0EE8CF82F0010EE8CF2E
:104A300084F011EC15F020EE60F0EEC12FF1EFC123
:104A400030F1020E2F5F000E305BBBEC01F02FC186
:104A500009F130C12FF1306B000E1B9F1B8D24EC30
:104A600009F03A0EDE6E09C12FF10DEC09F0DFEC12
:104A700002F0550E11EC16F0960EE8CF80F0020E03
:104A8000E8CF84F011EC15F020EE60F087C12FF133
:104A900088C130F139EC2FF0290E99EC0AF0E8B01A
:104AA0001FD0530EE8CF82F05EEC2FF0258737EC55
:104AB00009F025971B9FDFEC02F0B20EE8CF80F0E3
:104AC000910EE8CF82F0000EE8CF84F020EE60F087
:104AD00043EC5DF0F4F20000D80EE8CF80F031D066
:104AE000460EE8CF82F0258737EC09F025971B9F0B
:104AF000DFEC02F02597010EE8CF84F0AC0EE8CF92
:104B000080F0820EE8CF82F047EC5DF02E00040EBC
:104B1000356F2085000E3AEC09F020951B9F45EC7F
:104B20005DF0EC00000EE8CF84F0D80EE8CF80F006
:104B300008D009EC15F0190E81EC01F0C10EE8CF98
:104B400080F0000EE8CF84F011EC15F020EE60F05C
:104B500089C12FF18AC130F139EC2FF0290E99EC7F
:104B60000AF0E8B00FD07C0EE8CF82F05EEC2FF0B8
:104B700025871B9F37EC09F0259745EC5DF0F4F293
:104B8000000012006E0EE8CF82F020851B9F030EFE
:104B90003AEC09F045EC5DF0EC001200610E11EC0E
:104BA00016F0000EE8CF80F0010EE8CF82F0000E84
:104BB000E8CF84F0000EE8CF85F011EC15F020EE80
:104BC00060F0220EB5EC09F0A86604D0650E7EEC0C
:104BD00001F023D0A82E04D0660E7EEC01F01DD08B
:104BE000A82E04D0680E7EEC01F017D0A82E04D0B9
:104BF0008A0E7EEC01F011D0A82E04D0980E7EEC27
:104C000001F00BD0A82E04D0EC0E7EEC01F005D004
:104C1000A82E03D0E20E7EEC01F049EC5DF020906E
:104C200091205600030E2F6F1B8F18EC09F02E0EEB
:104C3000DE6E0D0E2F6F1B8F0DEC09F01B9F2B0EE0
:104C4000DE6EDFEC02F0000EE82E12000DEC15F027
:104C5000F30E83EC01F011EC15F012006F0E11EC65
:104C600016F0A1EC23F011EC15F024BF120025B1D1
:104C700007D0200E83EC01F01F0E83EC01F006D06C
:104C8000EE0E83EC01F01F0E83EC01F08BEC5BF079
:104C9000F10E83EC01F0220E83EC01F01200640EA1
:104CA000E8CF82F0000EE8CF80F0000EE8CF84F06D
:104CB00011EC15F047EC5DF0C3363A00180EB5EC78
:104CC00009F0A8CF2FF11B9F640E2F6306D049EC8B
:104CD0005DF03130302F30000BD0F9EC08F02F0EA2
:104CE000DE6E190EB5EC09F0A8CF2FF1F9EC08F043
:104CF000DFEC02F07B0E83EC01F07C0E83EC01F024
:104D00007D0E83EC01F07E0E83EC01F02C0E81EC25
:104D100001F0120011EC15F0FE0E83EC01F0290EEB
:104D200099EC0AF0E8B010D07C0E81EC01F07D0E19
:104D300081EC01F07E0E81EC01F07F0E81EC01F040
:104D4000320E81EC01F01200FA0E83EC01F0FB0E42
:104D500083EC01F0FC0E83EC01F0FD0E83EC01F01E
:104D6000320E81EC01F01200640EE8CF82F02FAF1A
:104D70000BD02F9F370E99EC0AF0E86601D004D0D3
:104D8000FD0E6EEC06F002D011EC15F020EE60F096
:104D90001B8F290E99EC0AF0E8B00ED030C1EDF16E
:104DA000306B5EEC2FF024EC09F045EC5DF0202038
:104DB0000000EDC130F106D018EC09F045EC5DF0D3
:104DC000EC2000008B0EE8CF82F020EE60F02F5137
:104DD00030C12FF1306F1B8FF9EC08F045EC5DF01E
:104DE00027002F5130C12FF1306F80C0E8FFE82A33
:104DF000E8CF80F0130EE8CF81F07A0EE8CF82F092
:104E0000100EE8CF83F0100E3061306F30C186F0A5
:104E100011EC15F023EC04F011EC15F080C0E8FF64
:104E2000E806E8CF80F0120080C0E8FF1CB3A808B5
:104E30001CA3F008E8CF81F0550EE8CF82F04A0EAF
:104E4000E8CF83F0E86AE8CF7AF0E8CF7BF0E8CFEC
:104E50007CF0E8CF7DF0E8CF7EF0E8CF7FF023EF65
:104E600004F06E0E11EC16F0000EE8CF85F013C2C0
:104E7000E8FFE81207E111EC15F0EF0E83EC01F00A
:104E80002481120002EE15F012EE35F0080E1CB36C
:104E9000060ECE6FCB6BE86AE8CF80F0D351CE031D
:104EA000CB51F324CC6F2491CCBB26D0CC51E3CF93
:104EB00030F1EBCF2FF12F511FE0B4EC26F080C082
:104EC000E8FF180FE8CF80F0CB2BCC2BCE51CB6373
:104ED000EBD7CC51EBCFE8FFE8120EE02491A4DF32
:104EE0006D0EE8CF82F011EC15F020EE60F08E0E22
:104EF0007EEC01F0DFEF02F0248196DF120011EC6E
:104F000015F0FE0E83EC01F0640EE8CF82F0000E87
:104F1000E8CF84F01B8F020E096F000E086F306B14
:104F2000302B040E0927190E0827640EE8CF82F0F3
:104F300008C180F020EE60F009C1A9FFE3EC09F0A0
:104F4000A8CF2FF118EC09F02F0EDE6EA92AE3ECA2
:104F500009F0A8CF2FF118EC09F0400EDE6E1B0E01
:104F60003025A96EE3EC09F0A8CF2FF118EC09F079
:104F70002F5108E0DBC1A8FF30C12FF1A8322F2F3D
:104F8000FDD705E2400E99EC0AF06EEC06F0DFEC7E
:104F900002F011EC15F0050E3063C2D7120027BDE8
:104FA0001200FD0E6EEC06F0520EE8CF82F0940E69
:104FB000E8CF80F0000EE8CF84F0060EAE6137D067
:104FC0001B8F47EC5DF0C300AEC12FF118EC09F068
:104FD00049EC5DF020EDE0200000AE051C0FA96E4D
:104FE000E3EC09F0A8CF2FF1290E99EC0AF0E8B014
:104FF0000ED0306B5EEC2FF024EC09F045EC5DF048
:10500000F4F2202000001B9F11EC15F0120018ECA8
:1050100009F049EC5DF06D200000E86AE8CF69F026
:1050200045EC5DF000001B9F11EC15F0120043EC05
:105030005DF02020202020202020202000001200D1
:105040006D0E11EC16F0640EE8CF82F0000EE8CF82
:1050500084F01B8F5D0E096FE70E086F306B302BED
:10506000040E0927190E0827640EE8CF82F008C144
:1050700080F047EC5DF0C40030C12FF118EC09F06E
:105080003A0EDE6E09C1A9FFE3EC09F0A8CF2FF1BB
:1050900018EC09F02F0EDE6EA92AE3EC09F0A8CF78
:1050A0002FF118EC09F0A906E3EC09F0070E35EC36
:1050B00015F0DFEC02F011EC15F0050E3063CFD7E0
:1050C00012006D0E11EC16F0640EE8CF82F0000EA7
:1050D000E8CF84F01B8F020E096FE70E086F306B6C
:1050E000302B040E0927190E0827640EE8CF82F032
:1050F00008C180F047EC5DF0C30030C12FF118EC1F
:1051000009F03A0EDE6E09C1A9FFE3EC09F0A8CF61
:105110002FF118EC09F02F0EDE6EA92AE3EC09F04E
:10512000A8CF2FF118EC09F0A906E3EC09F0070E5F
:1051300035EC15F0000EE8CF85F0E151306306D074
:10514000FD0E6EEC06F0010EE8CF85F0DBC1A8FF86
:1051500030C12FF1A8322F2FFDD7D8A00ED8DFEC09
:1051600002F011EC15F0050E3063BAD7000EE8CF4F
:1051700085F07A0E83EC01F01200400E99EC0AF0F3
:105180006EEC06F01200640EE8CF82F0000EE8CF5D
:1051900084F01B8F11EC15F0230E096F000E086FC1
:1051A000CB6B092BCB2B190E082708C180F0640E9E
:1051B000E8CF82F047EC5DF0D1CF0000CBC12FF1FA
:1051C00018EC09F03A0EDE6E09C1A9FFE3EC09F014
:1051D000A8CF2FF1306B030E3AEC09F0DFEC02F0B0
:1051E000030ECB63DED71B9F12001CB305D0A5ECCA
:1051F0005DF000A9554B1200A5EC5DF000A95150DF
:1052000012006C0E11EC16F0A5EC5DF00097550B3A
:10521000000EE8CF80F0550EE8CF82F0000EE8CF08
:1052200084F0000EE8CF85F011EC15F0AEC136F138
:10523000000E364F000E364F190E364F320E364FD7
:105240004B0E364F640E364F7D0EE8CF80F043ECA8
:105250005DF0B7001200690E11EC16F01CB305D01A
:10526000CCEC5DF01960524E04D0CCEC5DF0A94757
:105270005A461CA322D0400E99EC0AF06EEC06F0C0
:10528000AA0EE8CF80F0450EE8CF81F0010EE8CFFE
:1052900083F07A0EE8CF82F023EC04F0830EE8CF9F
:1052A00082F023EC04F08C0EE8CF82F023EC04F0C3
:1052B000950EE8CF82F023EC04F022EE95F0100E6C
:1052C000096F086B010EE8CF81F0640E1CB36C0E01
:1052D000E8CF82F0390E1CB3310EE8CF83F011EC29
:1052E00015F01C0E1CB3AC0E0825E8CF80F0082B7F
:1052F000082BDE50D890E832D890E832366F83C061
:10530000E8FF3661366F36C186F023EC04F0092FD2
:10531000E6D722EEA5F0100E096F086B11EC15F020
:10532000570E1CB3CE0E0825E8CF80F0082B082BB3
:10533000DE50D890E832D890E832366F83C0E8FF6C
:105340003661366F36C186F023EC04F0092FE6D7BC
:1053500011EC15F0540E1CB35C0EE8CF82F0200E59
:105360001CB3B00EE8CF80F043EC5DF04E3200008D
:105370005A0E1CB3D10EE8CF80F043EC5DF04865C7
:1053800000001CB312000CC209F112EE95F0095195
:10539000E3CF2FF13E0EE8CF80F0000EE8CF84F08F
:1053A00020EE60F01B8F18EC09F01B9F45EC5DF0C0
:1053B000252000009FEC5DF0490279259FEC5DF00F
:1053C0003D1879029FEC5DF0411082029FEC5DF088
:1053D00041108B029FEC5DF0411094029FEC5DF058
:1053E0003D189D02120009EC15F0030E83EC01F04C
:1053F00011EC15F0440E83EC01F0450E83EC01F046
:10540000460E83EC01F0470E83EC01F0480E83EC6E
:1054100001F0490E83EC01F04A0E83EC01F012001A
:1054200009EC15F0030E83EC01F011EC15F04B0EB6
:1054300083EC01F04C0E83EC01F04D0E83EC01F097
:105440004E0E83EC01F04F0E83EC01F0500E83EC16
:1054500001F0510E83EC01F0120009EC15F00F0E73
:1054600081EC01F011EC15F0100E81EC01F0110E41
:1054700081EC01F0120E81EC01F0130E81EC01F0D1
:1054800012006A0E11EC16F0A80EE8CF80F0320E72
:10549000E8CF82F0000EE8CF84F0000EE8CF85F070
:1054A00020EE60F014C32FF12F6708D011EC15F037
:1054B000070E7CEC01F0DFEC02F0120082C1E8FF85
:1054C000E8CF47F181C146F182C1F5FFF518F6E159
:1054D0000A0E486F496B09EC02F04367426953C1F9
:1054E000E8FF426104D0306B42C114F33CD082C16A
:1054F000E8FFE8CF47F181C146F182C1F5FFF51819
:10550000F6E10A0E486F496B09EC02F042C146F120
:1055100043C147F1C2C148F1496BECEC01F042C113
:105520004EF143C14FF153C1E8FF640DF3CF4CF18D
:10553000F4CF4DF1CEEC01F01BA712D042C146F1E1
:1055400043C147F1640E486F496B09EC02F042C158
:1055500014F343C130F1270E99EC0AF0E84E03D062
:1055600053C114F3306B14C32FF12FC1E8FF640D46
:10557000F4CF43F1F3CF42F1040E35EC15F0306770
:105580000BD81B8F030E3AEC09F01B9F45EC5DF026
:10559000200011EC15F012003E0EDE6E2F69306B0C
:1055A0000DEC15F0120009EC15F0000EE8CF84F0B8
:1055B000E90E83EC01F011EC15F0010EE8CF84F058
:1055C000640EE8CF82F0C30EE8CF80F020EE60F0EA
:1055D000BFC22FF1C0C230F139EC2FF0290E99EC87
:1055E0000AF0E8B008D05EEC2FF01B9F258737EC5F
:1055F00009F0259705D02085030E3AEC09F0209597
:1056000045EC5DF00000120009EC15F0000EE8CF4B
:1056100084F05F0EE8CF82F0C00EE8CF80F020EE7D
:1056200060F02B0E7CEC01F0DFEC02F0D80EE8CF3E
:1056300080F020EE60F02A0E7CEC01F0DFEC02F04E
:1056400011EC15F07D0EE8CF82F0C00EE8CF80F0AF
:1056500020EE60F00FC22FF11B8F290E99EC0AF09B
:10566000E8B01DD0306B5EEC2FF037EC09F01B9FDB
:1056700045EC5DF0F4F20000D80EE8CF80F020EEAB
:1056800060F010C22FF1306B5EEC2FF01B8F37EC07
:1056900009F01B9F45EC5DF0F4F2000014D018EC0B
:1056A00009F045EC5DF0EC200000D80EE8CF80F06A
:1056B00020EE60F010C22FF118EC09F01B9F45ECB2
:1056C0005DF0EC20000028B5120025A112005F0E4D
:1056D000E8CF82F0A80EE8CF80F009EC15F043EC9B
:1056E0005DF070704F323A000EC2E8FF640DF4CFE7
:1056F00043F1F3CF42F1040E35EC15F0820EE8CF02
:1057000082F0A80EE8CF80F00EC22FF12F2907E11A
:1057100043EC5DF02D2D2D2D000011EF15F020EE46
:1057200060F0306B1B8F030E3AEC09F01B9F200ECC
:10573000DE6EE86AE8CF64F045EC5DF0000011EF42
:1057400015F0000EE8CF84F05A0EE8CF82F0AA0ED2
:10575000E8CF80F009EC15F020EE60F0310E7CEC23
:1057600001F0DFEC02F0610EE8CF82F0C20EE8CF6C
:1057700080F047EC5DF040003A0E99EC0AF02F6F94
:105780001B8F18EC09F01B9F45EC5DF0273A2000B9
:10579000840EE8CF82F011EC15F020EE60F006C226
:1057A0002FF107C230F12F51301112E02F51301577
:1057B000E8280EE01B8F37EC09F01B9F49EC5DF0E9
:1057C00027202000E8CF63F045EC5DF000001200D8
:1057D00043EC5DF02D2D2D2000001200C2C1E8FF2A
:1057E00064080A0DF3CF46F1F4CF47F13E0E99EC71
:1057F0000AF0E8CF48F1496BECEC01F042C146F108
:1058000043C147F13F0E99EC0AF0E8CF48F1496BEC
:10581000ECEC01F00A0E486F496B30EC02F042C12B
:105820002FF143C130F182C1E8FFE8CF47F181C1D8
:1058300046F182C1F5FFF518F6E1C2C148F1496BA6
:10584000ECEC01F00A0E486F496B30EC02F042C1FB
:105850004CF143C14DF12FC14EF130C14FF1DDECA0
:1058600001F01200000EE8CF84F0600EE8CF82F065
:10587000AA0EE8CF80F009EC15F020EE60F00A0ED9
:105880007CEC01F0DFEC02F0000EE8CF84F05F0E5C
:10589000E8CF82F0C00EE8CF80F020EE60F043EC5D
:1058A0005DF070704F323A0099DF4AC142F14BC14E
:1058B00043F1446B456B040E35EC15F0820EE8CFD6
:1058C00082F0C00EE8CF80F020EE60F042C12FF1F0
:1058D00043C130F12587010E3AEC09F02597200EDF
:1058E000DE6E000EE8CF64F045EC5DF0000011ECD8
:1058F00015F0620EE8CF82F0D80EE8CF80F020EEEF
:1059000060F03E0E99EC0AF02F6F1B8F18EC09F037
:1059100049EC5DF02520312F00003F0E99EC0AF094
:105920002F6F18EC09F01B9F200EDE6E000EE8CFE3
:1059300069F045EC5DF000001200000EE8CF84F045
:105940005A0EE8CF82F0AA0EE8CF80F009EC15F0ED
:1059500020EE60F0370E7CEC01F0DFEC02F0010E7F
:10596000E8CF84F05A0EE8CF82F0C90EE8CF80F07D
:1059700011EC15F020EE60F017C146F118C147F1A7
:10598000380E99EC0AF0486F496BECEC01F03C0ED4
:10599000486F000E496F30EC02F042C146F143C13E
:1059A00047F187519725486F88519821496FECEC52
:1059B00001F0E80E486F030E496F30EC02F042C16F
:1059C0004CF143C14DF13B0EB3EC0AF02FC14EF147
:1059D00030C14FF1CEEC01F01BA70DEC15F042C128
:1059E0002FF143C130F11B9F37EC09F0DFEC02F0DF
:1059F000000EE8CF84F0120009EC15F01A0E81ECCD
:105A000001F046EC70F0010147EC5DF023000CC2A0
:105A10002FF10CC209F11B8F18EC09F049EC5DF075
:105A200020280000100E096105D049EC5DF04E32CF
:105A3000000004D049EC5DF0486500005F0EE8CF3F
:105A400082F0C00EE8CF80F0000EE8CF84F011ECB9
:105A500015F045EC5DF02920000012EE95F009519B
:105A6000E3CF2FF15F0EE8CF82F0D80EE8CF80F0C1
:105A7000000EE8CF84F020EE60F018EC09F045EC61
:105A80005DF0252000001B9F1200690EE8CF82F018
:105A9000AA0EE8CF80F0000EE8CF84F0000EE8CF29
:105AA00085F009EC15F0E3C1E8FFE8CF30F1E2C181
:105AB0002FF1E3C1F5FFF518F6E139EC2FF020EEF8
